{
  "_format": "hh-sol-artifact-1",
  "contractName": "DAOInteraction",
  "sourceName": "contracts/DAOInteraction.sol",
  "abi": [
    {
      "inputs": [
        {
          "internalType": "address",
          "name": "vat_",
          "type": "address"
        },
        {
          "internalType": "address",
          "name": "spot_",
          "type": "address"
        },
        {
          "internalType": "address",
          "name": "abnbc_",
          "type": "address"
        },
        {
          "internalType": "address",
          "name": "usb_",
          "type": "address"
        },
        {
          "internalType": "address",
          "name": "abnbcJoin_",
          "type": "address"
        },
        {
          "internalType": "address",
          "name": "usbJoin_",
          "type": "address"
        }
      ],
      "stateMutability": "nonpayable",
      "type": "constructor"
    },
    {
      "anonymous": false,
      "inputs": [
        {
          "indexed": true,
          "internalType": "address",
          "name": "user",
          "type": "address"
        },
        {
          "indexed": false,
          "internalType": "uint256",
          "name": "amount",
          "type": "uint256"
        }
      ],
      "name": "Borrow",
      "type": "event"
    },
    {
      "anonymous": false,
      "inputs": [
        {
          "indexed": true,
          "internalType": "address",
          "name": "user",
          "type": "address"
        },
        {
          "indexed": false,
          "internalType": "uint256",
          "name": "amount",
          "type": "uint256"
        }
      ],
      "name": "Deposit",
      "type": "event"
    },
    {
      "anonymous": false,
      "inputs": [
        {
          "indexed": true,
          "internalType": "address",
          "name": "user",
          "type": "address"
        },
        {
          "indexed": false,
          "internalType": "uint256",
          "name": "amount",
          "type": "uint256"
        }
      ],
      "name": "Payback",
      "type": "event"
    },
    {
      "anonymous": false,
      "inputs": [
        {
          "indexed": true,
          "internalType": "address",
          "name": "user",
          "type": "address"
        },
        {
          "indexed": false,
          "internalType": "uint256",
          "name": "amount",
          "type": "uint256"
        }
      ],
      "name": "Withdraw",
      "type": "event"
    },
    {
      "inputs": [],
      "name": "abnbc",
      "outputs": [
        {
          "internalType": "contract IERC20",
          "name": "",
          "type": "address"
        }
      ],
      "stateMutability": "view",
      "type": "function"
    },
    {
      "inputs": [],
      "name": "abnbcJoin",
      "outputs": [
        {
          "internalType": "contract GemJoin",
          "name": "",
          "type": "address"
        }
      ],
      "stateMutability": "view",
      "type": "function"
    },
    {
      "inputs": [
        {
          "internalType": "address",
          "name": "usr",
          "type": "address"
        }
      ],
      "name": "availableToBorrow",
      "outputs": [
        {
          "internalType": "int256",
          "name": "",
          "type": "int256"
        }
      ],
      "stateMutability": "view",
      "type": "function"
    },
    {
      "inputs": [
        {
          "internalType": "uint256",
          "name": "dart",
          "type": "uint256"
        }
      ],
      "name": "borrow",
      "outputs": [
        {
          "internalType": "uint256",
          "name": "",
          "type": "uint256"
        }
      ],
      "stateMutability": "nonpayable",
      "type": "function"
    },
    {
      "inputs": [
        {
          "internalType": "address",
          "name": "usr",
          "type": "address"
        }
      ],
      "name": "borrowed",
      "outputs": [
        {
          "internalType": "uint256",
          "name": "",
          "type": "uint256"
        }
      ],
      "stateMutability": "view",
      "type": "function"
    },
    {
      "inputs": [],
      "name": "collateralPrice",
      "outputs": [
        {
          "internalType": "uint256",
          "name": "",
          "type": "uint256"
        }
      ],
      "stateMutability": "view",
      "type": "function"
    },
    {
      "inputs": [],
      "name": "collateralRate",
      "outputs": [
        {
          "internalType": "uint256",
          "name": "",
          "type": "uint256"
        }
      ],
      "stateMutability": "view",
      "type": "function"
    },
    {
      "inputs": [],
      "name": "collateralTVL",
      "outputs": [
        {
          "internalType": "uint256",
          "name": "",
          "type": "uint256"
        }
      ],
      "stateMutability": "view",
      "type": "function"
    },
    {
      "inputs": [
        {
          "internalType": "address",
          "name": "usr",
          "type": "address"
        }
      ],
      "name": "currentLiquidationPrice",
      "outputs": [
        {
          "internalType": "uint256",
          "name": "",
          "type": "uint256"
        }
      ],
      "stateMutability": "view",
      "type": "function"
    },
    {
      "inputs": [
        {
          "internalType": "uint256",
          "name": "dink",
          "type": "uint256"
        }
      ],
      "name": "deposit",
      "outputs": [
        {
          "internalType": "uint256",
          "name": "",
          "type": "uint256"
        }
      ],
      "stateMutability": "nonpayable",
      "type": "function"
    },
    {
      "inputs": [],
      "name": "depositTVL",
      "outputs": [
        {
          "internalType": "uint256",
          "name": "",
          "type": "uint256"
        }
      ],
      "stateMutability": "view",
      "type": "function"
    },
    {
      "inputs": [
        {
          "internalType": "address",
          "name": "usr",
          "type": "address"
        },
        {
          "internalType": "int256",
          "name": "amount",
          "type": "int256"
        }
      ],
      "name": "estimatedLiquidationPrice",
      "outputs": [
        {
          "internalType": "uint256",
          "name": "",
          "type": "uint256"
        }
      ],
      "stateMutability": "view",
      "type": "function"
    },
    {
      "inputs": [
        {
          "internalType": "address",
          "name": "usr",
          "type": "address"
        }
      ],
      "name": "free",
      "outputs": [
        {
          "internalType": "uint256",
          "name": "",
          "type": "uint256"
        }
      ],
      "stateMutability": "view",
      "type": "function"
    },
    {
      "inputs": [
        {
          "internalType": "address",
          "name": "usr",
          "type": "address"
        }
      ],
      "name": "locked",
      "outputs": [
        {
          "internalType": "uint256",
          "name": "",
          "type": "uint256"
        }
      ],
      "stateMutability": "view",
      "type": "function"
    },
    {
      "inputs": [
        {
          "internalType": "uint256",
          "name": "dart",
          "type": "uint256"
        }
      ],
      "name": "payback",
      "outputs": [
        {
          "internalType": "uint256",
          "name": "",
          "type": "uint256"
        }
      ],
      "stateMutability": "nonpayable",
      "type": "function"
    },
    {
      "inputs": [],
      "name": "spotter",
      "outputs": [
        {
          "internalType": "contract Spotter",
          "name": "",
          "type": "address"
        }
      ],
      "stateMutability": "view",
      "type": "function"
    },
    {
      "inputs": [
        {
          "internalType": "string",
          "name": "source",
          "type": "string"
        }
      ],
      "name": "stringToBytes32",
      "outputs": [
        {
          "internalType": "bytes32",
          "name": "result",
          "type": "bytes32"
        }
      ],
      "stateMutability": "pure",
      "type": "function"
    },
    {
      "inputs": [],
      "name": "usb",
      "outputs": [
        {
          "internalType": "contract Usb",
          "name": "",
          "type": "address"
        }
      ],
      "stateMutability": "view",
      "type": "function"
    },
    {
      "inputs": [],
      "name": "usbJoin",
      "outputs": [
        {
          "internalType": "contract UsbJoin",
          "name": "",
          "type": "address"
        }
      ],
      "stateMutability": "view",
      "type": "function"
    },
    {
      "inputs": [],
      "name": "usbPrice",
      "outputs": [
        {
          "internalType": "uint256",
          "name": "",
          "type": "uint256"
        }
      ],
      "stateMutability": "view",
      "type": "function"
    },
    {
      "inputs": [],
      "name": "vat",
      "outputs": [
        {
          "internalType": "contract Vat",
          "name": "",
          "type": "address"
        }
      ],
      "stateMutability": "view",
      "type": "function"
    },
    {
      "inputs": [
        {
          "internalType": "address",
          "name": "usr",
          "type": "address"
        },
        {
          "internalType": "int256",
          "name": "amount",
          "type": "int256"
        }
      ],
      "name": "willBorrow",
      "outputs": [
        {
          "internalType": "int256",
          "name": "",
          "type": "int256"
        }
      ],
      "stateMutability": "view",
      "type": "function"
    },
    {
      "inputs": [
        {
          "internalType": "uint256",
          "name": "dink",
          "type": "uint256"
        }
      ],
      "name": "withdraw",
      "outputs": [
        {
          "internalType": "uint256",
          "name": "",
          "type": "uint256"
        }
      ],
      "stateMutability": "nonpayable",
      "type": "function"
    }
  ],
  "bytecode": "0x60806040523480156200001157600080fd5b5060405162001c6038038062001c6083398101604081905262000034916200025f565b600080546001600160a01b03199081166001600160a01b038981169190911790925560018054821688841617905560028054821687841617905560038054821686841617905560048054821685841617905560058054909116918316919091178155604080518082019091529081526461424e426360d81b6020820152620000bc9062000224565b6006556000546040516328ec8bf160e21b81526001600160a01b0383811660048301529091169063a3b22fc490602401600060405180830381600087803b1580156200010757600080fd5b505af11580156200011c573d6000803e3d6000fd5b505060025460405163095ea7b360e01b81526001600160a01b0386811660048301526000196024830152909116925063095ea7b391506044016020604051808303816000875af115801562000175573d6000803e3d6000fd5b505050506040513d601f19601f820116820180604052508101906200019b9190620002e0565b5060035460405163095ea7b360e01b81526001600160a01b03838116600483015260001960248301529091169063095ea7b3906044016020604051808303816000875af1158015620001f1573d6000803e3d6000fd5b505050506040513d601f19601f82011682018060405250810190620002179190620002e0565b505050505050506200030b565b80516000908290620002395750600092915050565b50506020015190565b80516001600160a01b03811681146200025a57600080fd5b919050565b60008060008060008060c087890312156200027957600080fd5b620002848762000242565b9550620002946020880162000242565b9450620002a46040880162000242565b9350620002b46060880162000242565b9250620002c46080880162000242565b9150620002d460a0880162000242565b90509295509295509295565b600060208284031215620002f357600080fd5b815180151581146200030457600080fd5b9392505050565b611945806200031b6000396000f3fe608060405234801561001057600080fd5b506004361061014d5760003560e01c80638dc00656116100c3578063c9b5bb171161007c578063c9b5bb1714610289578063cbf9fe5f1461029c578063cfb51928146102af578063d18bc45e146102c2578063db5501ea146102d5578063f2b301a9146102e857600080fd5b80638dc0065614610222578063a3d7621d14610235578063a846c2fd14610248578063b6b55f251461025b578063c5618b8b1461026e578063c5ebeaec1461027657600080fd5b806336569e771161011557806336569e77146101d15780635891de72146101e457806358a6be1c146101ec578063590153bc146101f45780636fa11d28146101fc5780638ae8b3091461020f57600080fd5b80630941cb3d146101525780632c38199e146101785780632e1a7d4d1461018b5780632e77468d1461019e57806332b44817146101c9575b600080fd5b6101656101603660046114ae565b6102fb565b6040519081526020015b60405180910390f35b6101656101863660046114ae565b610378565b6101656101993660046114d2565b6104bb565b6001546101b1906001600160a01b031681565b6040516001600160a01b03909116815260200161016f565b610165610684565b6000546101b1906001600160a01b031681565b610165610712565b61016561080e565b610165610896565b61016561020a3660046114ae565b6108b2565b6005546101b1906001600160a01b031681565b6002546101b1906001600160a01b031681565b6101656102433660046114eb565b610a63565b6101656102563660046114d2565b610c77565b6101656102693660046114d2565b610e0a565b610165611000565b6101656102843660046114d2565b61107d565b6101656102973660046114ae565b6111fc565b6101656102aa3660046114ae565b611277565b6101656102bd36600461152d565b6112f4565b6101656102d03660046114eb565b611311565b6003546101b1906001600160a01b031681565b6004546101b1906001600160a01b031681565b600080546006546040516309092f9760e21b815283926001600160a01b031691632424be5c91610330919087906004016115de565b6040805180830381865afa15801561034c573d6000803e3d6000fd5b505050506040513d601f19601f8201168201806040525081019061037091906115f5565b949350505050565b600080546006546040516309092f9760e21b8152839283926001600160a01b0390911691632424be5c916103b09188906004016115de565b6040805180830381865afa1580156103cc573d6000803e3d6000fd5b505050506040513d601f19601f820116820180604052508101906103f091906115f5565b60008054600654604051636cb1c69b60e11b815260048101919091529395509193509182916001600160a01b03169063d9638d369060240160a060405180830381865afa158015610445573d6000803e3d6000fd5b505050506040513d601f19601f820116820180604052508101906104699190611619565b505092509250506000818561047e919061166f565b9050600061048c858561166f565b90506b033b2e3c9fd0803ce80000006104a5828461168e565b6104af91906116e3565b98975050505050505050565b6000806104c7336111fc565b9050828110156105ce5760006104dd828561168e565b6000546006549192506001600160a01b03169063760887039033808061050287611711565b60006040518763ffffffff1660e01b81526004016105259695949392919061172e565b600060405180830381600087803b15801561053f57600080fd5b505af1158015610553573d6000803e3d6000fd5b5050600054600654604051633088df1760e11b81526004810191909152336024820152306044820152606481018590526001600160a01b039091169250636111be2e9150608401600060405180830381600087803b1580156105b457600080fd5b505af11580156105c8573d6000803e3d6000fd5b50505050505b6004805460405163ef693bed60e01b81526001600160a01b039091169163ef693bed916105ff913391889101611763565b600060405180830381600087803b15801561061957600080fd5b505af115801561062d573d6000803e3d6000fd5b505050508260076000828254610643919061177c565b909155505060405183815233907f884edad9ce6fa2440d8a54cc123490eb96d2768479d49ff9c7366125a94243649060200160405180910390a25090919050565b60008054600654604051636cb1c69b60e11b8152600481019190915282916001600160a01b03169063d9638d369060240160a060405180830381865afa1580156106d2573d6000803e3d6000fd5b505050506040513d601f19601f820116820180604052508101906106f69190611619565b505050915050633b9aca008161070c9190611793565b91505090565b600154600654604051636cb1c69b60e11b815260009283926001600160a01b039091169163d9638d369161074c9160040190815260200190565b6040805180830381865afa158015610768573d6000803e3d6000fd5b505050506040513d601f19601f8201168201806040525081019061078c91906117a7565b509050600080826001600160a01b03166359e02dd76040518163ffffffff1660e01b81526004016040805180830381865afa1580156107cf573d6000803e3d6000fd5b505050506040513d601f19601f820116820180604052508101906107f391906117ea565b915091508015610804575092915050565b6000935050505090565b60008054600654604051636cb1c69b60e11b8152600481019190915282916001600160a01b03169063d9638d369060240160a060405180830381865afa15801561085c573d6000803e3d6000fd5b505050506040513d601f19601f820116820180604052508101906108809190611619565b505092505050633b9aca008161070c9190611793565b60006108a0610712565b6007546108ad919061166f565b905090565b600080546006546040516309092f9760e21b8152839283926001600160a01b0390911691632424be5c916108ea9188906004016115de565b6040805180830381865afa158015610906573d6000803e3d6000fd5b505050506040513d601f19601f8201168201806040525081019061092a91906115f5565b60008054600654604051636cb1c69b60e11b815260048101919091529395509193509182916001600160a01b03169063d9638d369060240160a060405180830381865afa15801561097f573d6000803e3d6000fd5b505050506040513d601f19601f820116820180604052508101906109a39190611619565b5050600154600654604051636cb1c69b60e11b8152939650919450600093506001600160a01b03169163d9638d36916109e29160040190815260200190565b6040805180830381865afa1580156109fe573d6000803e3d6000fd5b505050506040513d601f19601f82011682018060405250810190610a2291906117a7565b915060009050816ec097ce7bc90715b34b9f1000000000610a43868861166f565b610a4d9190611793565b610a57919061166f565b90506104af8682611793565b600080546006546040516309092f9760e21b8152839283926001600160a01b0390911691632424be5c91610a9b9189906004016115de565b6040805180830381865afa158015610ab7573d6000803e3d6000fd5b505050506040513d601f19601f82011682018060405250810190610adb91906115f5565b9150915081610ae990611711565b841215610b115760405162461bcd60e51b8152600401610b0890611816565b60405180910390fd5b6000841215610b2b57610b24848361185e565b9150610b38565b610b35848361189f565b91505b60008054600654604051636cb1c69b60e11b8152600481019190915282916001600160a01b03169063d9638d369060240160a060405180830381865afa158015610b86573d6000803e3d6000fd5b505050506040513d601f19601f82011682018060405250810190610baa9190611619565b5050600154600654604051636cb1c69b60e11b8152939650919450600093506001600160a01b03169163d9638d3691610be99160040190815260200190565b6040805180830381865afa158015610c05573d6000803e3d6000fd5b505050506040513d601f19601f82011682018060405250810190610c2991906117a7565b915060009050816ec097ce7bc90715b34b9f1000000000610c4a868861166f565b610c549190611793565b610c5e919061166f565b9050610c6a8682611793565b9998505050505050505050565b6003546040516323b872dd60e01b81526000916001600160a01b0316906323b872dd90610cac903390309087906004016118b7565b6020604051808303816000875af1158015610ccb573d6000803e3d6000fd5b505050506040513d601f19601f82011682018060405250810190610cef91906118db565b50600554604051633b4da69f60e01b81526001600160a01b0390911690633b4da69f90610d229033908690600401611763565b600060405180830381600087803b158015610d3c57600080fd5b505af1158015610d50573d6000803e3d6000fd5b5050600080546006546001600160a01b0390911693506376088703925090339081908190610d7d89611711565b6040518763ffffffff1660e01b8152600401610d9e9695949392919061172e565b600060405180830381600087803b158015610db857600080fd5b505af1158015610dcc573d6000803e3d6000fd5b50506040518481523392507f8c9cdf934f136ab5b80fe11dfd56363fa7544ecb56d4c440c0d8a14d04bfff4a91506020015b60405180910390a25090565b6002546040516323b872dd60e01b81526000916001600160a01b0316906323b872dd90610e3f903390309087906004016118b7565b6020604051808303816000875af1158015610e5e573d6000803e3d6000fd5b505050506040513d601f19601f82011682018060405250810190610e8291906118db565b5060048054604051633b4da69f60e01b81526001600160a01b0390911691633b4da69f91610eb4913391879101611763565b600060405180830381600087803b158015610ece57600080fd5b505af1158015610ee2573d6000803e3d6000fd5b5050600054604051635216788d60e01b81523360048201523060248201526001600160a01b039091169250635216788d9150604401600060405180830381600087803b158015610f3157600080fd5b505af1158015610f45573d6000803e3d6000fd5b505060008054600654604051637608870360e01b81526001600160a01b03909216945063760887039350610f859290913391829182918a9160040161172e565b600060405180830381600087803b158015610f9f57600080fd5b505af1158015610fb3573d6000803e3d6000fd5b505050508160076000828254610fc9919061189f565b909155505060405182815233907fe1fffcc4923d04b559f4d29a8bfc6cda04eb5b0d3c460751c2402c5c5cc9109c90602001610dfe565b60008054600654604051636cb1c69b60e11b8152600481019190915282916001600160a01b03169063d9638d369060240160a060405180830381865afa15801561104e573d6000803e3d6000fd5b505050506040513d601f19601f820116820180604052508101906110729190611619565b509295945050505050565b60008054600654604051637608870360e01b81526001600160a01b03909216916376088703916110b99133908190819088908a9060040161172e565b600060405180830381600087803b1580156110d357600080fd5b505af11580156110e7573d6000803e3d6000fd5b50506000546001600160a01b0316915063bb35783b90503330611116866b033b2e3c9fd0803ce800000061166f565b6040518463ffffffff1660e01b8152600401611134939291906118b7565b600060405180830381600087803b15801561114e57600080fd5b505af1158015611162573d6000803e3d6000fd5b505060055460405163ef693bed60e01b81526001600160a01b03909116925063ef693bed91506111989033908690600401611763565b600060405180830381600087803b1580156111b257600080fd5b505af11580156111c6573d6000803e3d6000fd5b50506040518481523392507fcbc04eca7e9da35cb1393a6135a199ca52e450d5e9251cbd99f7847d33a367509150602001610dfe565b6000805460065460405163214414d560e01b81526001600160a01b039092169163214414d5916112309186906004016115de565b602060405180830381865afa15801561124d573d6000803e3d6000fd5b505050506040513d601f19601f8201168201806040525081019061127191906118f6565b92915050565b600080546006546040516309092f9760e21b815283926001600160a01b031691632424be5c916112ac919087906004016115de565b6040805180830381865afa1580156112c8573d6000803e3d6000fd5b505050506040513d601f19601f820116820180604052508101906112ec91906115f5565b509392505050565b805160009082906113085750600092915050565b50506020015190565b600080546006546040516309092f9760e21b8152839283926001600160a01b0390911691632424be5c916113499189906004016115de565b6040805180830381865afa158015611365573d6000803e3d6000fd5b505050506040513d601f19601f8201168201806040525081019061138991906115f5565b60008054600654604051636cb1c69b60e11b815260048101919091529395509193509182916001600160a01b03169063d9638d369060240160a060405180830381865afa1580156113de573d6000803e3d6000fd5b505050506040513d601f19601f820116820180604052508101906114029190611619565b505092509250508361141390611711565b8612156114325760405162461bcd60e51b8152600401610b0890611816565b600086121561144c57611445868561185e565b9350611459565b611456868561189f565b93505b6000611465828661166f565b90506000611473858561166f565b90506b033b2e3c9fd0803ce800000061148c828461168e565b610c6a91906116e3565b6001600160a01b03811681146114ab57600080fd5b50565b6000602082840312156114c057600080fd5b81356114cb81611496565b9392505050565b6000602082840312156114e457600080fd5b5035919050565b600080604083850312156114fe57600080fd5b823561150981611496565b946020939093013593505050565b634e487b7160e01b600052604160045260246000fd5b60006020828403121561153f57600080fd5b813567ffffffffffffffff8082111561155757600080fd5b818401915084601f83011261156b57600080fd5b81358181111561157d5761157d611517565b604051601f8201601f19908116603f011681019083821181831017156115a5576115a5611517565b816040528281528760208487010111156115be57600080fd5b826020860160208301376000928101602001929092525095945050505050565b9182526001600160a01b0316602082015260400190565b6000806040838503121561160857600080fd5b505080516020909101519092909150565b600080600080600060a0868803121561163157600080fd5b5050835160208501516040860151606087015160809097015192989197509594509092509050565b634e487b7160e01b600052601160045260246000fd5b600081600019048311821515161561168957611689611659565b500290565b60008083128015600160ff1b8501841216156116ac576116ac611659565b6001600160ff1b03840183138116156116c7576116c7611659565b50500390565b634e487b7160e01b600052601260045260246000fd5b6000826116f2576116f26116cd565b600160ff1b82146000198414161561170c5761170c611659565b500590565b6000600160ff1b82141561172757611727611659565b5060000390565b9586526001600160a01b039485166020870152928416604086015292166060840152608083019190915260a082015260c00190565b6001600160a01b03929092168252602082015260400190565b60008282101561178e5761178e611659565b500390565b6000826117a2576117a26116cd565b500490565b600080604083850312156117ba57600080fd5b82516117c581611496565b6020939093015192949293505050565b805180151581146117e557600080fd5b919050565b600080604083850312156117fd57600080fd5b8251915061180d602084016117d5565b90509250929050565b60208082526028908201527f43616e6e6f74207769746864726177206d6f7265207468616e2063757272656e6040820152671d08185b5bdd5b9d60c21b606082015260800190565b600080821280156001600160ff1b038490038513161561188057611880611659565b600160ff1b839003841281161561189957611899611659565b50500190565b600082198211156118b2576118b2611659565b500190565b6001600160a01b039384168152919092166020820152604081019190915260600190565b6000602082840312156118ed57600080fd5b6114cb826117d5565b60006020828403121561190857600080fd5b505191905056fea2646970667358221220fc0f9dbd702124b22b61ad2c382104e230cadf0ac775800706f0bbbd1bdb0ac164736f6c634300080a0033",
  "linkReferences": {},
  "deployedLinkReferences": {}
}