{
  "_format": "hh-sol-artifact-1",
  "contractName": "DAOInteraction",
  "sourceName": "contracts/DAOInteraction.sol",
  "abi": [
    {
      "inputs": [
        {
          "internalType": "address",
          "name": "vat_",
          "type": "address"
        },
        {
          "internalType": "address",
          "name": "spot_",
          "type": "address"
        },
        {
          "internalType": "address",
          "name": "usb_",
          "type": "address"
        },
        {
          "internalType": "address",
          "name": "usbJoin_",
          "type": "address"
        },
        {
          "internalType": "address",
          "name": "jug_",
          "type": "address"
        }
      ],
      "stateMutability": "nonpayable",
      "type": "constructor"
    },
    {
      "anonymous": false,
      "inputs": [
        {
          "indexed": true,
          "internalType": "address",
          "name": "user",
          "type": "address"
        },
        {
          "indexed": false,
          "internalType": "uint256",
          "name": "amount",
          "type": "uint256"
        }
      ],
      "name": "Borrow",
      "type": "event"
    },
    {
      "anonymous": false,
      "inputs": [
        {
          "indexed": true,
          "internalType": "address",
          "name": "user",
          "type": "address"
        },
        {
          "indexed": false,
          "internalType": "uint256",
          "name": "amount",
          "type": "uint256"
        }
      ],
      "name": "Deposit",
      "type": "event"
    },
    {
      "anonymous": false,
      "inputs": [
        {
          "indexed": true,
          "internalType": "address",
          "name": "user",
          "type": "address"
        },
        {
          "indexed": false,
          "internalType": "uint256",
          "name": "amount",
          "type": "uint256"
        }
      ],
      "name": "Payback",
      "type": "event"
    },
    {
      "anonymous": false,
      "inputs": [
        {
          "indexed": true,
          "internalType": "address",
          "name": "user",
          "type": "address"
        },
        {
          "indexed": false,
          "internalType": "uint256",
          "name": "amount",
          "type": "uint256"
        }
      ],
      "name": "Withdraw",
      "type": "event"
    },
    {
      "inputs": [
        {
          "internalType": "address",
          "name": "token",
          "type": "address"
        },
        {
          "internalType": "address",
          "name": "usr",
          "type": "address"
        }
      ],
      "name": "availableToBorrow",
      "outputs": [
        {
          "internalType": "int256",
          "name": "",
          "type": "int256"
        }
      ],
      "stateMutability": "view",
      "type": "function"
    },
    {
      "inputs": [
        {
          "internalType": "address",
          "name": "token",
          "type": "address"
        },
        {
          "internalType": "uint256",
          "name": "dart",
          "type": "uint256"
        }
      ],
      "name": "borrow",
      "outputs": [
        {
          "internalType": "uint256",
          "name": "",
          "type": "uint256"
        }
      ],
      "stateMutability": "nonpayable",
      "type": "function"
    },
    {
      "inputs": [
        {
          "internalType": "address",
          "name": "token",
          "type": "address"
        },
        {
          "internalType": "address",
          "name": "usr",
          "type": "address"
        }
      ],
      "name": "borrowed",
      "outputs": [
        {
          "internalType": "uint256",
          "name": "",
          "type": "uint256"
        }
      ],
      "stateMutability": "view",
      "type": "function"
    },
    {
      "inputs": [
        {
          "internalType": "address",
          "name": "token",
          "type": "address"
        }
      ],
      "name": "collateralPrice",
      "outputs": [
        {
          "internalType": "uint256",
          "name": "",
          "type": "uint256"
        }
      ],
      "stateMutability": "view",
      "type": "function"
    },
    {
      "inputs": [
        {
          "internalType": "address",
          "name": "token",
          "type": "address"
        }
      ],
      "name": "collateralRate",
      "outputs": [
        {
          "internalType": "uint256",
          "name": "",
          "type": "uint256"
        }
      ],
      "stateMutability": "view",
      "type": "function"
    },
    {
      "inputs": [
        {
          "internalType": "address",
          "name": "token",
          "type": "address"
        }
      ],
      "name": "collateralTVL",
      "outputs": [
        {
          "internalType": "uint256",
          "name": "",
          "type": "uint256"
        }
      ],
      "stateMutability": "view",
      "type": "function"
    },
    {
      "inputs": [
        {
          "internalType": "address",
          "name": "token",
          "type": "address"
        },
        {
          "internalType": "address",
          "name": "usr",
          "type": "address"
        }
      ],
      "name": "currentLiquidationPrice",
      "outputs": [
        {
          "internalType": "uint256",
          "name": "",
          "type": "uint256"
        }
      ],
      "stateMutability": "view",
      "type": "function"
    },
    {
      "inputs": [
        {
          "internalType": "address",
          "name": "usr",
          "type": "address"
        }
      ],
      "name": "deny",
      "outputs": [],
      "stateMutability": "nonpayable",
      "type": "function"
    },
    {
      "inputs": [
        {
          "internalType": "address",
          "name": "token",
          "type": "address"
        },
        {
          "internalType": "uint256",
          "name": "dink",
          "type": "uint256"
        }
      ],
      "name": "deposit",
      "outputs": [
        {
          "internalType": "uint256",
          "name": "",
          "type": "uint256"
        }
      ],
      "stateMutability": "nonpayable",
      "type": "function"
    },
    {
      "inputs": [
        {
          "internalType": "address",
          "name": "token",
          "type": "address"
        }
      ],
      "name": "depositTVL",
      "outputs": [
        {
          "internalType": "uint256",
          "name": "",
          "type": "uint256"
        }
      ],
      "stateMutability": "view",
      "type": "function"
    },
    {
      "inputs": [
        {
          "internalType": "address",
          "name": "token",
          "type": "address"
        }
      ],
      "name": "drip",
      "outputs": [],
      "stateMutability": "nonpayable",
      "type": "function"
    },
    {
      "inputs": [
        {
          "internalType": "address",
          "name": "token",
          "type": "address"
        },
        {
          "internalType": "address",
          "name": "usr",
          "type": "address"
        },
        {
          "internalType": "int256",
          "name": "amount",
          "type": "int256"
        }
      ],
      "name": "estimatedLiquidationPrice",
      "outputs": [
        {
          "internalType": "uint256",
          "name": "",
          "type": "uint256"
        }
      ],
      "stateMutability": "view",
      "type": "function"
    },
    {
      "inputs": [
        {
          "internalType": "address",
          "name": "token",
          "type": "address"
        },
        {
          "internalType": "address",
          "name": "usr",
          "type": "address"
        }
      ],
      "name": "free",
      "outputs": [
        {
          "internalType": "uint256",
          "name": "",
          "type": "uint256"
        }
      ],
      "stateMutability": "view",
      "type": "function"
    },
    {
      "inputs": [],
      "name": "jug",
      "outputs": [
        {
          "internalType": "contract Jug",
          "name": "",
          "type": "address"
        }
      ],
      "stateMutability": "view",
      "type": "function"
    },
    {
      "inputs": [
        {
          "internalType": "address",
          "name": "token",
          "type": "address"
        },
        {
          "internalType": "address",
          "name": "usr",
          "type": "address"
        }
      ],
      "name": "locked",
      "outputs": [
        {
          "internalType": "uint256",
          "name": "",
          "type": "uint256"
        }
      ],
      "stateMutability": "view",
      "type": "function"
    },
    {
      "inputs": [
        {
          "internalType": "address",
          "name": "token",
          "type": "address"
        },
        {
          "internalType": "uint256",
          "name": "dart",
          "type": "uint256"
        }
      ],
      "name": "payback",
      "outputs": [
        {
          "internalType": "uint256",
          "name": "",
          "type": "uint256"
        }
      ],
      "stateMutability": "nonpayable",
      "type": "function"
    },
    {
      "inputs": [
        {
          "internalType": "address",
          "name": "usr",
          "type": "address"
        }
      ],
      "name": "rely",
      "outputs": [],
      "stateMutability": "nonpayable",
      "type": "function"
    },
    {
      "inputs": [
        {
          "internalType": "address",
          "name": "token",
          "type": "address"
        },
        {
          "internalType": "address",
          "name": "gemJoin",
          "type": "address"
        }
      ],
      "name": "removeCollateralType",
      "outputs": [],
      "stateMutability": "nonpayable",
      "type": "function"
    },
    {
      "inputs": [
        {
          "internalType": "address",
          "name": "token",
          "type": "address"
        },
        {
          "internalType": "address",
          "name": "gemJoin",
          "type": "address"
        },
        {
          "internalType": "bytes32",
          "name": "ilk",
          "type": "bytes32"
        }
      ],
      "name": "setCollateralType",
      "outputs": [],
      "stateMutability": "nonpayable",
      "type": "function"
    },
    {
      "inputs": [],
      "name": "spotter",
      "outputs": [
        {
          "internalType": "contract Spotter",
          "name": "",
          "type": "address"
        }
      ],
      "stateMutability": "view",
      "type": "function"
    },
    {
      "inputs": [
        {
          "internalType": "string",
          "name": "source",
          "type": "string"
        }
      ],
      "name": "stringToBytes32",
      "outputs": [
        {
          "internalType": "bytes32",
          "name": "result",
          "type": "bytes32"
        }
      ],
      "stateMutability": "pure",
      "type": "function"
    },
    {
      "inputs": [],
      "name": "usb",
      "outputs": [
        {
          "internalType": "contract Usb",
          "name": "",
          "type": "address"
        }
      ],
      "stateMutability": "view",
      "type": "function"
    },
    {
      "inputs": [],
      "name": "usbJoin",
      "outputs": [
        {
          "internalType": "contract UsbJoin",
          "name": "",
          "type": "address"
        }
      ],
      "stateMutability": "view",
      "type": "function"
    },
    {
      "inputs": [
        {
          "internalType": "address",
          "name": "token",
          "type": "address"
        }
      ],
      "name": "usbPrice",
      "outputs": [
        {
          "internalType": "uint256",
          "name": "",
          "type": "uint256"
        }
      ],
      "stateMutability": "view",
      "type": "function"
    },
    {
      "inputs": [],
      "name": "vat",
      "outputs": [
        {
          "internalType": "contract Vat",
          "name": "",
          "type": "address"
        }
      ],
      "stateMutability": "view",
      "type": "function"
    },
    {
      "inputs": [
        {
          "internalType": "address",
          "name": "",
          "type": "address"
        }
      ],
      "name": "wards",
      "outputs": [
        {
          "internalType": "uint256",
          "name": "",
          "type": "uint256"
        }
      ],
      "stateMutability": "view",
      "type": "function"
    },
    {
      "inputs": [
        {
          "internalType": "address",
          "name": "token",
          "type": "address"
        },
        {
          "internalType": "address",
          "name": "usr",
          "type": "address"
        },
        {
          "internalType": "int256",
          "name": "amount",
          "type": "int256"
        }
      ],
      "name": "willBorrow",
      "outputs": [
        {
          "internalType": "int256",
          "name": "",
          "type": "int256"
        }
      ],
      "stateMutability": "view",
      "type": "function"
    },
    {
      "inputs": [
        {
          "internalType": "address",
          "name": "token",
          "type": "address"
        },
        {
          "internalType": "uint256",
          "name": "dink",
          "type": "uint256"
        }
      ],
      "name": "withdraw",
      "outputs": [
        {
          "internalType": "uint256",
          "name": "",
          "type": "uint256"
        }
      ],
      "stateMutability": "nonpayable",
      "type": "function"
    }
  ],
  "bytecode": "0x60806040523480156200001157600080fd5b5060405162002a7638038062002a76833981016040819052620000349162000195565b336000908152602081905260409081902060019081905580546001600160a01b03199081166001600160a01b038981169182179093556002805483168985161790556003805483168885161790556004805483168785169081178255600580549094169487169490941790925592516328ec8bf160e21b81529081019190915263a3b22fc490602401600060405180830381600087803b158015620000d857600080fd5b505af1158015620000ed573d6000803e3d6000fd5b505060035460405163095ea7b360e01b81526001600160a01b0386811660048301526000196024830152909116925063095ea7b391506044016020604051808303816000875af115801562000146573d6000803e3d6000fd5b505050506040513d601f19601f820116820180604052508101906200016c919062000205565b50505050505062000230565b80516001600160a01b03811681146200019057600080fd5b919050565b600080600080600060a08688031215620001ae57600080fd5b620001b98662000178565b9450620001c96020870162000178565b9350620001d96040870162000178565b9250620001e96060870162000178565b9150620001f96080870162000178565b90509295509295909350565b6000602082840312156200021857600080fd5b815180151581146200022957600080fd5b9392505050565b61283680620002406000396000f3fe608060405234801561001057600080fd5b50600436106101845760003560e01c80638ae8b309116100d9578063db20266f11610087578063db20266f14610352578063db5501ea14610365578063dc7e91dd14610378578063f3fef3a31461038b578063f4cf436a1461039e578063f563bb6f146103b1578063fc085c11146103c457600080fd5b80638ae8b309146102c05780639c52a7f1146102d3578063aa592eee146102e6578063b0a02abe146102f9578063bf353dbb1461030c578063c5cafb881461032c578063cfb519281461033f57600080fd5b80634eb3048a116101365780634eb3048a1461023b578063515416101461024e57806365fae35e1461026157806367a5cd061461027457806372c8fef01461028757806384718d891461029a57806389a283b9146102ad57600080fd5b806308b1cb23146101895780632e77468d146101af57806335ed8ab8146101da57806336569e77146101ed578063435f4bb41461020057806347e7ef24146102155780634b8a352914610228575b600080fd5b61019c610197366004612237565b6103d7565b6040519081526020015b60405180910390f35b6002546101c2906001600160a01b031681565b6040516001600160a01b0390911681526020016101a6565b61019c6101e836600461225b565b610541565b6001546101c2906001600160a01b031681565b61021361020e366004612287565b6107df565b005b61019c61022336600461225b565b610836565b61019c61023636600461225b565b610aea565b61019c610249366004612237565b610d10565b61019c61025c3660046122c0565b610df9565b61021361026f366004612237565b61107d565b610213610282366004612237565b6110c9565b61019c610295366004612237565b6111ae565b6005546101c2906001600160a01b031681565b61019c6102bb366004612237565b6112a8565b6004546101c2906001600160a01b031681565b6102136102e1366004612237565b6112dc565b61019c6102f43660046122c0565b611325565b61019c610307366004612287565b611516565b61019c61031a366004612237565b60006020819052908152604090205481565b61019c61033a366004612287565b6115ff565b61019c61034d366004612317565b6116dd565b61019c610360366004612287565b6116fa565b6003546101c2906001600160a01b031681565b61019c610386366004612287565b6117e3565b61019c61039936600461225b565b611a49565b6102136103ac3660046122c0565b611c96565b61019c6103bf366004612237565b611e62565b61019c6103d2366004612287565b611f54565b6001600160a01b038082166000908152600760209081526040808320815160608101835281549095168552600180820154938601939093526002015463ffffffff16908401819052919291146104485760405162461bcd60e51b815260040161043f906123c8565b60405180910390fd5b6002546020820151604051636cb1c69b60e11b815260048101919091526000916001600160a01b03169063d9638d36906024016040805180830381865afa158015610497573d6000803e3d6000fd5b505050506040513d601f19601f820116820180604052508101906104bb91906123ff565b509050600080826001600160a01b03166359e02dd76040518163ffffffff1660e01b81526004016040805180830381865afa1580156104fe573d6000803e3d6000fd5b505050506040513d601f19601f820116820180604052508101906105229190612442565b9150915080156105355750949350505050565b50600095945050505050565b6001600160a01b038083166000908152600760209081526040808320815160608101835281549095168552600180820154938601939093526002015463ffffffff16908401819052919291146105a95760405162461bcd60e51b815260040161043f906123c8565b6003546040516323b872dd60e01b81526001600160a01b03909116906323b872dd906105dd9033903090889060040161246e565b6020604051808303816000875af11580156105fc573d6000803e3d6000fd5b505050506040513d601f19601f820116820180604052508101906106209190612492565b5060048054604051633b4da69f60e01b81526001600160a01b0390911691633b4da69f916106529133918891016124ad565b600060405180830381600087803b15801561066c57600080fd5b505af1158015610680573d6000803e3d6000fd5b50506001546020840151604051636cb1c69b60e11b81526004810191909152600093506001600160a01b03909116915063d9638d369060240160a060405180830381865afa1580156106d6573d6000803e3d6000fd5b505050506040513d601f19601f820116820180604052508101906106fa91906124c6565b50505091505060008185676765c793fa10079d601b1b61071a919061251c565b6107249190612551565b61072d90612565565b6001546020850151604051637608870360e01b81529293506001600160a01b039091169163760887039161076e913390819081906000908990600401612582565b600060405180830381600087803b15801561078857600080fd5b505af115801561079c573d6000803e3d6000fd5b50506040518781523392507f8c9cdf934f136ab5b80fe11dfd56363fa7544ecb56d4c440c0d8a14d04bfff4a915060200160405180910390a25092949350505050565b3360009081526020819052604090205460011461080e5760405162461bcd60e51b815260040161043f906125b7565b506001600160a01b03166000908152600760205260409020600201805463ffffffff19169055565b600061086f604051806040016040528060158152602001744465706f736974696f6e6720746f6b656e3a20257360581b81525084612174565b6001600160a01b03808416600090815260076020908152604091829020825160608101845281549094168452600180820154928501929092526002015463ffffffff16918301829052146108d55760405162461bcd60e51b815260040161043f906123c8565b6040516323b872dd60e01b81526001600160a01b038516906323b872dd906109059033903090889060040161246e565b6020604051808303816000875af1158015610924573d6000803e3d6000fd5b505050506040513d601f19601f820116820180604052508101906109489190612492565b508051604051633b4da69f60e01b81526001600160a01b0390911690633b4da69f9061097a90339087906004016124ad565b600060405180830381600087803b15801561099457600080fd5b505af11580156109a8573d6000803e3d6000fd5b5050600154604051635216788d60e01b81523360048201523060248201526001600160a01b039091169250635216788d9150604401600060405180830381600087803b1580156109f757600080fd5b505af1158015610a0b573d6000803e3d6000fd5b50506001546020840151604051637608870360e01b81526001600160a01b03909216935063760887039250610a4d913390819081908a90600090600401612582565b600060405180830381600087803b158015610a6757600080fd5b505af1158015610a7b573d6000803e3d6000fd5b505050506001600160a01b03841660009081526006602052604081208054859290610aa79084906125ee565b909155505060405183815233907fe1fffcc4923d04b559f4d29a8bfc6cda04eb5b0d3c460751c2402c5c5cc9109c906020015b60405180910390a2509092915050565b6000610b2b6040518060400160405280601b81526020017f426f72726f77696e6720616761696e737420746f6b656e3a202573000000000081525084612174565b6001600160a01b03808416600090815260076020908152604091829020825160608101845281549094168452600180820154928501929092526002015463ffffffff1691830182905214610b915760405162461bcd60e51b815260040161043f906123c8565b6001546020820151604051637608870360e01b81526001600160a01b0390921691637608870391610bcf913390819081906000908b90600401612582565b600060405180830381600087803b158015610be957600080fd5b505af1158015610bfd573d6000803e3d6000fd5b50506001546001600160a01b0316915063bb35783b90503330610c2b87676765c793fa10079d601b1b61251c565b6040518463ffffffff1660e01b8152600401610c499392919061246e565b600060405180830381600087803b158015610c6357600080fd5b505af1158015610c77573d6000803e3d6000fd5b50506004805460405163ef693bed60e01b81526001600160a01b03909116935063ef693bed9250610cac9133918891016124ad565b600060405180830381600087803b158015610cc657600080fd5b505af1158015610cda573d6000803e3d6000fd5b50506040518581523392507fcbc04eca7e9da35cb1393a6135a199ca52e450d5e9251cbd99f7847d33a367509150602001610ada565b6001600160a01b038082166000908152600760209081526040808320815160608101835281549095168552600180820154938601939093526002015463ffffffff1690840181905291929114610d785760405162461bcd60e51b815260040161043f906123c8565b6001546020820151604051636cb1c69b60e11b815260048101919091526000916001600160a01b03169063d9638d369060240160a060405180830381865afa158015610dc8573d6000803e3d6000fd5b505050506040513d601f19601f82011682018060405250810190610dec91906124c6565b5092979650505050505050565b6001600160a01b038084166000908152600760209081526040808320815160608101835281549095168552600180820154938601939093526002015463ffffffff1690840181905291929114610e615760405162461bcd60e51b815260040161043f906123c8565b60015460208201516040516309092f9760e21b815260009283926001600160a01b0390911691632424be5c91610e9b918a90600401612606565b6040805180830381865afa158015610eb7573d6000803e3d6000fd5b505050506040513d601f19601f82011682018060405250810190610edb919061261d565b9150915081610ee990612565565b851215610f085760405162461bcd60e51b815260040161043f90612641565b6000851215610f2257610f1b8583612689565b9150610f2f565b610f2c85836125ee565b91505b6001546020840151604051636cb1c69b60e11b815260009283926001600160a01b039091169163d9638d3691610f6b9160040190815260200190565b60a060405180830381865afa158015610f88573d6000803e3d6000fd5b505050506040513d601f19601f82011682018060405250810190610fac91906124c6565b50506002546020890151604051636cb1c69b60e11b8152939650919450600093506001600160a01b03169163d9638d3691610fed9160040190815260200190565b6040805180830381865afa158015611009573d6000803e3d6000fd5b505050506040513d601f19601f8201168201806040525081019061102d91906123ff565b915060009050816ec097ce7bc90715b34b9f100000000061104e868861251c565b6110589190612551565b611062919061251c565b905061106e8682612551565b9b9a5050505050505050505050565b336000908152602081905260409020546001146110ac5760405162461bcd60e51b815260040161043f906125b7565b6001600160a01b0316600090815260208190526040902060019055565b6001600160a01b03808216600090815260076020908152604091829020825160608101845281549094168452600180820154928501929092526002015463ffffffff169183018290521461112f5760405162461bcd60e51b815260040161043f906123c8565b600554602082015160405163089c54b560e31b81526001600160a01b03909216916344e2a5a8916111669160040190815260200190565b6020604051808303816000875af1158015611185573d6000803e3d6000fd5b505050506040513d601f19601f820116820180604052508101906111a991906126ca565b505050565b6001600160a01b038082166000908152600760209081526040808320815160608101835281549095168552600180820154938601939093526002015463ffffffff16908401819052919291146112165760405162461bcd60e51b815260040161043f906123c8565b6001546020820151604051636cb1c69b60e11b815260048101919091526000916001600160a01b03169063d9638d369060240160a060405180830381865afa158015611266573d6000803e3d6000fd5b505050506040513d601f19601f8201168201806040525081019061128a91906124c6565b505092505050633b9aca00816112a09190612551565b949350505050565b60006112b3826103d7565b6001600160a01b0383166000908152600660205260409020546112d6919061251c565b92915050565b3360009081526020819052604090205460011461130b5760405162461bcd60e51b815260040161043f906125b7565b6001600160a01b0316600090815260208190526040812055565b6001600160a01b038084166000908152600760209081526040808320815160608101835281549095168552600180820154938601939093526002015463ffffffff169084018190529192911461138d5760405162461bcd60e51b815260040161043f906123c8565b60015460208201516040516309092f9760e21b815260009283926001600160a01b0390911691632424be5c916113c7918a90600401612606565b6040805180830381865afa1580156113e3573d6000803e3d6000fd5b505050506040513d601f19601f82011682018060405250810190611407919061261d565b6001546020860151604051636cb1c69b60e11b8152600481019190915292945090925060009182916001600160a01b03169063d9638d369060240160a060405180830381865afa15801561145f573d6000803e3d6000fd5b505050506040513d601f19601f8201168201806040525081019061148391906124c6565b505092509250508361149490612565565b8712156114b35760405162461bcd60e51b815260040161043f90612641565b60008712156114cd576114c68785612689565b93506114da565b6114d787856125ee565b93505b60006114e6828661251c565b905060006114f4858561251c565b9050676765c793fa10079d601b1b61150c82846126e3565b61106e9190612722565b6001600160a01b038083166000908152600760209081526040808320815160608101835281549095168552600180820154938601939093526002015463ffffffff169084018190529192911461157e5760405162461bcd60e51b815260040161043f906123c8565b60015460208201516040516309092f9760e21b81526000926001600160a01b031691632424be5c916115b591908890600401612606565b6040805180830381865afa1580156115d1573d6000803e3d6000fd5b505050506040513d601f19601f820116820180604052508101906115f5919061261d565b9695505050505050565b6001600160a01b038083166000908152600760209081526040808320815160608101835281549095168552600180820154938601939093526002015463ffffffff16908401819052919291146116675760405162461bcd60e51b815260040161043f906123c8565b600154602082015160405163214414d560e01b81526001600160a01b039092169163214414d59161169c918790600401612606565b602060405180830381865afa1580156116b9573d6000803e3d6000fd5b505050506040513d601f19601f820116820180604052508101906112a091906126ca565b805160009082906116f15750600092915050565b50506020015190565b6001600160a01b038083166000908152600760209081526040808320815160608101835281549095168552600180820154938601939093526002015463ffffffff16908401819052919291146117625760405162461bcd60e51b815260040161043f906123c8565b60015460208201516040516309092f9760e21b81526000926001600160a01b031691632424be5c9161179991908890600401612606565b6040805180830381865afa1580156117b5573d6000803e3d6000fd5b505050506040513d601f19601f820116820180604052508101906117d9919061261d565b5095945050505050565b6001600160a01b038083166000908152600760209081526040808320815160608101835281549095168552600180820154938601939093526002015463ffffffff169084018190529192911461184b5760405162461bcd60e51b815260040161043f906123c8565b60015460208201516040516309092f9760e21b815260009283926001600160a01b0390911691632424be5c91611885918990600401612606565b6040805180830381865afa1580156118a1573d6000803e3d6000fd5b505050506040513d601f19601f820116820180604052508101906118c5919061261d565b915091506118f56040518060400160405280600a815260200169496e6b206973203a257360b01b815250836121bd565b6119216040518060400160405280600a815260200169417274206973203a257360b01b815250826121bd565b6001546020840151604051636cb1c69b60e11b815260009283926001600160a01b039091169163d9638d369161195d9160040190815260200190565b60a060405180830381865afa15801561197a573d6000803e3d6000fd5b505050506040513d601f19601f8201168201806040525081019061199e91906124c6565b505092509250506119d26040518060400160405280600b81526020016a52617465206973203a257360a81b815250836121bd565b6119ff6040518060400160405280600b81526020016a73706f74206973203a257360a81b815250826121bd565b6000611a0b828661251c565b90506000611a19858561251c565b9050676765c793fa10079d601b1b611a3182846126e3565b611a3b9190612722565b9a9950505050505050505050565b6001600160a01b038083166000908152600760209081526040808320815160608101835281549095168552600180820154938601939093526002015463ffffffff1690840181905291929114611ab15760405162461bcd60e51b815260040161043f906123c8565b6000611abd85336115ff565b905083811015611bc8576000611ad382866126e3565b60015460208501519192506001600160a01b031690637608870390338080611afa87612565565b60006040518763ffffffff1660e01b8152600401611b1d96959493929190612582565b600060405180830381600087803b158015611b3757600080fd5b505af1158015611b4b573d6000803e3d6000fd5b50506001546020860151604051633088df1760e11b81526004810191909152336024820152306044820152606481018590526001600160a01b039091169250636111be2e9150608401600060405180830381600087803b158015611bae57600080fd5b505af1158015611bc2573d6000803e3d6000fd5b50505050505b815160405163ef693bed60e01b81526001600160a01b039091169063ef693bed90611bf990339088906004016124ad565b600060405180830381600087803b158015611c1357600080fd5b505af1158015611c27573d6000803e3d6000fd5b505050506001600160a01b03851660009081526006602052604081208054869290611c53908490612750565b909155505060405184815233907f884edad9ce6fa2440d8a54cc123490eb96d2768479d49ff9c7366125a94243649060200160405180910390a250919392505050565b33600090815260208190526040902054600114611cc55760405162461bcd60e51b815260040161043f906125b7565b604080516060810182526001600160a01b038481168252602080830185815260018486018181528985166000818152600790955293879020955186546001600160a01b031916951694909417855590519084015590516002909201805463ffffffff191663ffffffff90931692909217909155905163095ea7b360e01b815263095ea7b390611d5c908590600019906004016124ad565b6020604051808303816000875af1158015611d7b573d6000803e3d6000fd5b505050506040513d601f19601f82011682018060405250810190611d9f9190612492565b50600154604051633b66319560e01b8152600481018390526001600160a01b0390911690633b66319590602401600060405180830381600087803b158015611de657600080fd5b505af1158015611dfa573d6000803e3d6000fd5b50506001546040516332fd71af60e11b81526001600160a01b03868116600483015290911692506365fae35e9150602401600060405180830381600087803b158015611e4557600080fd5b505af1158015611e59573d6000803e3d6000fd5b50505050505050565b6001600160a01b038082166000908152600760209081526040808320815160608101835281549095168552600180820154938601939093526002015463ffffffff1690840181905291929114611eca5760405162461bcd60e51b815260040161043f906123c8565b6001546020820151604051636cb1c69b60e11b815260048101919091526000916001600160a01b03169063d9638d369060240160a060405180830381865afa158015611f1a573d6000803e3d6000fd5b505050506040513d601f19601f82011682018060405250810190611f3e91906124c6565b505050915050633b9aca00816112a09190612551565b6001600160a01b038083166000908152600760209081526040808320815160608101835281549095168552600180820154938601939093526002015463ffffffff1690840181905291929114611fbc5760405162461bcd60e51b815260040161043f906123c8565b60015460208201516040516309092f9760e21b815260009283926001600160a01b0390911691632424be5c91611ff6918990600401612606565b6040805180830381865afa158015612012573d6000803e3d6000fd5b505050506040513d601f19601f82011682018060405250810190612036919061261d565b6001546020860151604051636cb1c69b60e11b8152600481019190915292945090925060009182916001600160a01b03169063d9638d369060240160a060405180830381865afa15801561208e573d6000803e3d6000fd5b505050506040513d601f19601f820116820180604052508101906120b291906124c6565b50506002546020890151604051636cb1c69b60e11b8152939650919450600093506001600160a01b03169163d9638d36916120f39160040190815260200190565b6040805180830381865afa15801561210f573d6000803e3d6000fd5b505050506040513d601f19601f8201168201806040525081019061213391906123ff565b915060009050816ec097ce7bc90715b34b9f1000000000612154868861251c565b61215e9190612551565b612168919061251c565b9050611a3b8682612551565b6121b9828260405160240161218a9291906127b4565b60408051601f198184030181529190526020810180516001600160e01b031663319af33360e01b1790526121fe565b5050565b6121b982826040516024016121d39291906127de565b60408051601f198184030181529190526020810180516001600160e01b03166309710a9d60e41b1790525b80516a636f6e736f6c652e6c6f67602083016000808483855afa5050505050565b6001600160a01b038116811461223457600080fd5b50565b60006020828403121561224957600080fd5b81356122548161221f565b9392505050565b6000806040838503121561226e57600080fd5b82356122798161221f565b946020939093013593505050565b6000806040838503121561229a57600080fd5b82356122a58161221f565b915060208301356122b58161221f565b809150509250929050565b6000806000606084860312156122d557600080fd5b83356122e08161221f565b925060208401356122f08161221f565b929592945050506040919091013590565b634e487b7160e01b600052604160045260246000fd5b60006020828403121561232957600080fd5b813567ffffffffffffffff8082111561234157600080fd5b818401915084601f83011261235557600080fd5b81358181111561236757612367612301565b604051601f8201601f19908116603f0116810190838211818310171561238f5761238f612301565b816040528281528760208487010111156123a857600080fd5b826020860160208301376000928101602001929092525095945050505050565b6020808252601f908201527f496e746572616374696f6e2f696e61637469766520636f6c6c61746572616c00604082015260600190565b6000806040838503121561241257600080fd5b825161241d8161221f565b6020939093015192949293505050565b8051801515811461243d57600080fd5b919050565b6000806040838503121561245557600080fd5b825191506124656020840161242d565b90509250929050565b6001600160a01b039384168152919092166020820152604081019190915260600190565b6000602082840312156124a457600080fd5b6122548261242d565b6001600160a01b03929092168252602082015260400190565b600080600080600060a086880312156124de57600080fd5b5050835160208501516040860151606087015160809097015192989197509594509092509050565b634e487b7160e01b600052601160045260246000fd5b600081600019048311821515161561253657612536612506565b500290565b634e487b7160e01b600052601260045260246000fd5b6000826125605761256061253b565b500490565b6000600160ff1b82141561257b5761257b612506565b5060000390565b9586526001600160a01b039485166020870152928416604086015292166060840152608083019190915260a082015260c00190565b6020808252601a908201527f496e746572616374696f6e2f6e6f742d617574686f72697a6564000000000000604082015260600190565b6000821982111561260157612601612506565b500190565b9182526001600160a01b0316602082015260400190565b6000806040838503121561263057600080fd5b505080516020909101519092909150565b60208082526028908201527f43616e6e6f74207769746864726177206d6f7265207468616e2063757272656e6040820152671d08185b5bdd5b9d60c21b606082015260800190565b600080821280156001600160ff1b03849003851316156126ab576126ab612506565b600160ff1b83900384128116156126c4576126c4612506565b50500190565b6000602082840312156126dc57600080fd5b5051919050565b60008083128015600160ff1b85018412161561270157612701612506565b6001600160ff1b038401831381161561271c5761271c612506565b50500390565b6000826127315761273161253b565b600160ff1b82146000198414161561274b5761274b612506565b500590565b60008282101561276257612762612506565b500390565b6000815180845260005b8181101561278d57602081850181015186830182015201612771565b8181111561279f576000602083870101525b50601f01601f19169290920160200192915050565b6040815260006127c76040830185612767565b905060018060a01b03831660208301529392505050565b6040815260006127f16040830185612767565b9050826020830152939250505056fea2646970667358221220fd0dd4fd03e9c0e5079a14213c6c0cfe0634ae6a5dfbff694a4d5eb14b0737c564736f6c634300080a0033",
  "linkReferences": {},
  "deployedLinkReferences": {}
}