{
  "_format": "hh-sol-artifact-1",
  "contractName": "DAOInteraction",
  "sourceName": "contracts/DAOInteraction.sol",
  "abi": [
    {
      "inputs": [
        {
          "internalType": "address",
          "name": "vat_",
          "type": "address"
        },
        {
          "internalType": "address",
          "name": "spot_",
          "type": "address"
        },
        {
          "internalType": "address",
          "name": "abnbc_",
          "type": "address"
        },
        {
          "internalType": "address",
          "name": "usb_",
          "type": "address"
        },
        {
          "internalType": "address",
          "name": "abnbcJoin_",
          "type": "address"
        },
        {
          "internalType": "address",
          "name": "usbJoin_",
          "type": "address"
        }
      ],
      "stateMutability": "nonpayable",
      "type": "constructor"
    },
    {
      "anonymous": false,
      "inputs": [
        {
          "indexed": true,
          "internalType": "address",
          "name": "user",
          "type": "address"
        },
        {
          "indexed": false,
          "internalType": "uint256",
          "name": "amount",
          "type": "uint256"
        }
      ],
      "name": "Borrow",
      "type": "event"
    },
    {
      "anonymous": false,
      "inputs": [
        {
          "indexed": true,
          "internalType": "address",
          "name": "user",
          "type": "address"
        },
        {
          "indexed": false,
          "internalType": "uint256",
          "name": "amount",
          "type": "uint256"
        }
      ],
      "name": "Deposit",
      "type": "event"
    },
    {
      "anonymous": false,
      "inputs": [
        {
          "indexed": true,
          "internalType": "address",
          "name": "user",
          "type": "address"
        },
        {
          "indexed": false,
          "internalType": "uint256",
          "name": "amount",
          "type": "uint256"
        }
      ],
      "name": "Payback",
      "type": "event"
    },
    {
      "anonymous": false,
      "inputs": [
        {
          "indexed": true,
          "internalType": "address",
          "name": "user",
          "type": "address"
        },
        {
          "indexed": false,
          "internalType": "uint256",
          "name": "amount",
          "type": "uint256"
        }
      ],
      "name": "Withdraw",
      "type": "event"
    },
    {
      "inputs": [],
      "name": "abnbc",
      "outputs": [
        {
          "internalType": "contract IERC20",
          "name": "",
          "type": "address"
        }
      ],
      "stateMutability": "view",
      "type": "function"
    },
    {
      "inputs": [],
      "name": "abnbcJoin",
      "outputs": [
        {
          "internalType": "contract GemJoin",
          "name": "",
          "type": "address"
        }
      ],
      "stateMutability": "view",
      "type": "function"
    },
    {
      "inputs": [
        {
          "internalType": "address",
          "name": "usr",
          "type": "address"
        }
      ],
      "name": "availableToBorrow",
      "outputs": [
        {
          "internalType": "int256",
          "name": "",
          "type": "int256"
        }
      ],
      "stateMutability": "view",
      "type": "function"
    },
    {
      "inputs": [
        {
          "internalType": "uint256",
          "name": "dart",
          "type": "uint256"
        }
      ],
      "name": "borrow",
      "outputs": [
        {
          "internalType": "uint256",
          "name": "",
          "type": "uint256"
        }
      ],
      "stateMutability": "nonpayable",
      "type": "function"
    },
    {
      "inputs": [
        {
          "internalType": "address",
          "name": "usr",
          "type": "address"
        }
      ],
      "name": "borrowed",
      "outputs": [
        {
          "internalType": "uint256",
          "name": "",
          "type": "uint256"
        }
      ],
      "stateMutability": "view",
      "type": "function"
    },
    {
      "inputs": [],
      "name": "collateralRate",
      "outputs": [
        {
          "internalType": "uint256",
          "name": "",
          "type": "uint256"
        }
      ],
      "stateMutability": "view",
      "type": "function"
    },
    {
      "inputs": [
        {
          "internalType": "uint256",
          "name": "dink",
          "type": "uint256"
        }
      ],
      "name": "deposit",
      "outputs": [
        {
          "internalType": "uint256",
          "name": "",
          "type": "uint256"
        }
      ],
      "stateMutability": "nonpayable",
      "type": "function"
    },
    {
      "inputs": [
        {
          "internalType": "address",
          "name": "usr",
          "type": "address"
        }
      ],
      "name": "free",
      "outputs": [
        {
          "internalType": "uint256",
          "name": "",
          "type": "uint256"
        }
      ],
      "stateMutability": "view",
      "type": "function"
    },
    {
      "inputs": [
        {
          "internalType": "address",
          "name": "usr",
          "type": "address"
        }
      ],
      "name": "locked",
      "outputs": [
        {
          "internalType": "uint256",
          "name": "",
          "type": "uint256"
        }
      ],
      "stateMutability": "view",
      "type": "function"
    },
    {
      "inputs": [
        {
          "internalType": "uint256",
          "name": "dart",
          "type": "uint256"
        }
      ],
      "name": "payback",
      "outputs": [
        {
          "internalType": "uint256",
          "name": "",
          "type": "uint256"
        }
      ],
      "stateMutability": "nonpayable",
      "type": "function"
    },
    {
      "inputs": [],
      "name": "spotter",
      "outputs": [
        {
          "internalType": "contract Spotter",
          "name": "",
          "type": "address"
        }
      ],
      "stateMutability": "view",
      "type": "function"
    },
    {
      "inputs": [
        {
          "internalType": "string",
          "name": "source",
          "type": "string"
        }
      ],
      "name": "stringToBytes32",
      "outputs": [
        {
          "internalType": "bytes32",
          "name": "result",
          "type": "bytes32"
        }
      ],
      "stateMutability": "pure",
      "type": "function"
    },
    {
      "inputs": [],
      "name": "usb",
      "outputs": [
        {
          "internalType": "contract Usb",
          "name": "",
          "type": "address"
        }
      ],
      "stateMutability": "view",
      "type": "function"
    },
    {
      "inputs": [],
      "name": "usbJoin",
      "outputs": [
        {
          "internalType": "contract UsbJoin",
          "name": "",
          "type": "address"
        }
      ],
      "stateMutability": "view",
      "type": "function"
    },
    {
      "inputs": [],
      "name": "vat",
      "outputs": [
        {
          "internalType": "contract Vat",
          "name": "",
          "type": "address"
        }
      ],
      "stateMutability": "view",
      "type": "function"
    },
    {
      "inputs": [
        {
          "internalType": "uint256",
          "name": "dink",
          "type": "uint256"
        }
      ],
      "name": "withdraw",
      "outputs": [
        {
          "internalType": "uint256",
          "name": "",
          "type": "uint256"
        }
      ],
      "stateMutability": "nonpayable",
      "type": "function"
    }
  ],
  "bytecode": "0x60806040523480156200001157600080fd5b50604051620012b7380380620012b783398101604081905262000034916200025f565b600080546001600160a01b03199081166001600160a01b038981169190911790925560018054821688841617905560028054821687841617905560038054821686841617905560048054821685841617905560058054909116918316919091178155604080518082019091529081526461424e426360d81b6020820152620000bc9062000224565b6006556000546040516328ec8bf160e21b81526001600160a01b0383811660048301529091169063a3b22fc490602401600060405180830381600087803b1580156200010757600080fd5b505af11580156200011c573d6000803e3d6000fd5b505060025460405163095ea7b360e01b81526001600160a01b0386811660048301526000196024830152909116925063095ea7b391506044016020604051808303816000875af115801562000175573d6000803e3d6000fd5b505050506040513d601f19601f820116820180604052508101906200019b9190620002e0565b5060035460405163095ea7b360e01b81526001600160a01b03838116600483015260001960248301529091169063095ea7b3906044016020604051808303816000875af1158015620001f1573d6000803e3d6000fd5b505050506040513d601f19601f82011682018060405250810190620002179190620002e0565b505050505050506200030b565b80516000908290620002395750600092915050565b50506020015190565b80516001600160a01b03811681146200025a57600080fd5b919050565b60008060008060008060c087890312156200027957600080fd5b620002848762000242565b9550620002946020880162000242565b9450620002a46040880162000242565b9350620002b46060880162000242565b9250620002c46080880162000242565b9150620002d460a0880162000242565b90509295509295509295565b600060208284031215620002f357600080fd5b815180151581146200030457600080fd5b9392505050565b610f9c806200031b6000396000f3fe608060405234801561001057600080fd5b50600436106100e05760003560e01c8063a846c2fd11610087578063a846c2fd1461019d578063b6b55f25146101b0578063c5ebeaec146101c3578063c9b5bb17146101d6578063cbf9fe5f146101e9578063cfb51928146101fc578063db5501ea1461020f578063f2b301a91461022257600080fd5b80630941cb3d146100e55780632c38199e1461010b5780632e1a7d4d1461011e5780632e77468d1461013157806336569e771461015c57806358a6be1c1461016f5780638ae8b309146101775780638dc006561461018a575b600080fd5b6100f86100f3366004610c46565b610235565b6040519081526020015b60405180910390f35b6100f8610119366004610c46565b6102b2565b6100f861012c366004610c63565b6103f5565b600154610144906001600160a01b031681565b6040516001600160a01b039091168152602001610102565b600054610144906001600160a01b031681565b6100f86105a7565b600554610144906001600160a01b031681565b600254610144906001600160a01b031681565b6100f86101ab366004610c63565b610628565b6100f86101be366004610c63565b6107bb565b6100f86101d1366004610c63565b61099a565b6100f86101e4366004610c46565b610b19565b6100f86101f7366004610c46565b610b94565b6100f861020a366004610c92565b610c11565b600354610144906001600160a01b031681565b600454610144906001600160a01b031681565b600080546006546040516309092f9760e21b815283926001600160a01b031691632424be5c9161026a91908790600401610d43565b6040805180830381865afa158015610286573d6000803e3d6000fd5b505050506040513d601f19601f820116820180604052508101906102aa9190610d5a565b949350505050565b600080546006546040516309092f9760e21b8152839283926001600160a01b0390911691632424be5c916102ea918890600401610d43565b6040805180830381865afa158015610306573d6000803e3d6000fd5b505050506040513d601f19601f8201168201806040525081019061032a9190610d5a565b60008054600654604051636cb1c69b60e11b815260048101919091529395509193509182916001600160a01b03169063d9638d369060240160a060405180830381865afa15801561037f573d6000803e3d6000fd5b505050506040513d601f19601f820116820180604052508101906103a39190610d7e565b50509250925050600081856103b89190610dd4565b905060006103c68585610dd4565b90506b033b2e3c9fd0803ce80000006103df8284610df3565b6103e99190610e32565b98975050505050505050565b60008061040133610b19565b9050828110156105085760006104178285610df3565b6000546006549192506001600160a01b03169063760887039033808061043c87610e6e565b60006040518763ffffffff1660e01b815260040161045f96959493929190610e8b565b600060405180830381600087803b15801561047957600080fd5b505af115801561048d573d6000803e3d6000fd5b5050600054600654604051633088df1760e11b81526004810191909152336024820152306044820152606481018590526001600160a01b039091169250636111be2e9150608401600060405180830381600087803b1580156104ee57600080fd5b505af1158015610502573d6000803e3d6000fd5b50505050505b6004805460405163ef693bed60e01b81526001600160a01b039091169163ef693bed91610539913391889101610ec0565b600060405180830381600087803b15801561055357600080fd5b505af1158015610567573d6000803e3d6000fd5b50506040518581523392507f884edad9ce6fa2440d8a54cc123490eb96d2768479d49ff9c7366125a9424364915060200160405180910390a25090919050565b600154600654604051636cb1c69b60e11b815260009283926001600160a01b039091169163d9638d36916105e19160040190815260200190565b6040805180830381865afa1580156105fd573d6000803e3d6000fd5b505050506040513d601f19601f820116820180604052508101906106219190610ed9565b9392505050565b6003546040516323b872dd60e01b81526000916001600160a01b0316906323b872dd9061065d90339030908790600401610f07565b6020604051808303816000875af115801561067c573d6000803e3d6000fd5b505050506040513d601f19601f820116820180604052508101906106a09190610f2b565b50600554604051633b4da69f60e01b81526001600160a01b0390911690633b4da69f906106d39033908690600401610ec0565b600060405180830381600087803b1580156106ed57600080fd5b505af1158015610701573d6000803e3d6000fd5b5050600080546006546001600160a01b039091169350637608870392509033908190819061072e89610e6e565b6040518763ffffffff1660e01b815260040161074f96959493929190610e8b565b600060405180830381600087803b15801561076957600080fd5b505af115801561077d573d6000803e3d6000fd5b50506040518481523392507f8c9cdf934f136ab5b80fe11dfd56363fa7544ecb56d4c440c0d8a14d04bfff4a91506020015b60405180910390a25090565b6002546040516323b872dd60e01b81526000916001600160a01b0316906323b872dd906107f090339030908790600401610f07565b6020604051808303816000875af115801561080f573d6000803e3d6000fd5b505050506040513d601f19601f820116820180604052508101906108339190610f2b565b5060048054604051633b4da69f60e01b81526001600160a01b0390911691633b4da69f91610865913391879101610ec0565b600060405180830381600087803b15801561087f57600080fd5b505af1158015610893573d6000803e3d6000fd5b5050600054604051635216788d60e01b81523360048201523060248201526001600160a01b039091169250635216788d9150604401600060405180830381600087803b1580156108e257600080fd5b505af11580156108f6573d6000803e3d6000fd5b505060008054600654604051637608870360e01b81526001600160a01b039092169450637608870393506109369290913391829182918a91600401610e8b565b600060405180830381600087803b15801561095057600080fd5b505af1158015610964573d6000803e3d6000fd5b50506040518481523392507fe1fffcc4923d04b559f4d29a8bfc6cda04eb5b0d3c460751c2402c5c5cc9109c91506020016107af565b60008054600654604051637608870360e01b81526001600160a01b03909216916376088703916109d69133908190819088908a90600401610e8b565b600060405180830381600087803b1580156109f057600080fd5b505af1158015610a04573d6000803e3d6000fd5b50506000546001600160a01b0316915063bb35783b90503330610a33866b033b2e3c9fd0803ce8000000610dd4565b6040518463ffffffff1660e01b8152600401610a5193929190610f07565b600060405180830381600087803b158015610a6b57600080fd5b505af1158015610a7f573d6000803e3d6000fd5b505060055460405163ef693bed60e01b81526001600160a01b03909116925063ef693bed9150610ab59033908690600401610ec0565b600060405180830381600087803b158015610acf57600080fd5b505af1158015610ae3573d6000803e3d6000fd5b50506040518481523392507fcbc04eca7e9da35cb1393a6135a199ca52e450d5e9251cbd99f7847d33a3675091506020016107af565b6000805460065460405163214414d560e01b81526001600160a01b039092169163214414d591610b4d918690600401610d43565b602060405180830381865afa158015610b6a573d6000803e3d6000fd5b505050506040513d601f19601f82011682018060405250810190610b8e9190610f4d565b92915050565b600080546006546040516309092f9760e21b815283926001600160a01b031691632424be5c91610bc991908790600401610d43565b6040805180830381865afa158015610be5573d6000803e3d6000fd5b505050506040513d601f19601f82011682018060405250810190610c099190610d5a565b509392505050565b80516000908290610c255750600092915050565b50506020015190565b6001600160a01b0381168114610c4357600080fd5b50565b600060208284031215610c5857600080fd5b813561062181610c2e565b600060208284031215610c7557600080fd5b5035919050565b634e487b7160e01b600052604160045260246000fd5b600060208284031215610ca457600080fd5b813567ffffffffffffffff80821115610cbc57600080fd5b818401915084601f830112610cd057600080fd5b813581811115610ce257610ce2610c7c565b604051601f8201601f19908116603f01168101908382118183101715610d0a57610d0a610c7c565b81604052828152876020848701011115610d2357600080fd5b826020860160208301376000928101602001929092525095945050505050565b9182526001600160a01b0316602082015260400190565b60008060408385031215610d6d57600080fd5b505080516020909101519092909150565b600080600080600060a08688031215610d9657600080fd5b5050835160208501516040860151606087015160809097015192989197509594509092509050565b634e487b7160e01b600052601160045260246000fd5b6000816000190483118215151615610dee57610dee610dbe565b500290565b60008083128015600160ff1b850184121615610e1157610e11610dbe565b6001600160ff1b0384018313811615610e2c57610e2c610dbe565b50500390565b600082610e4f57634e487b7160e01b600052601260045260246000fd5b600160ff1b821460001984141615610e6957610e69610dbe565b500590565b6000600160ff1b821415610e8457610e84610dbe565b5060000390565b9586526001600160a01b039485166020870152928416604086015292166060840152608083019190915260a082015260c00190565b6001600160a01b03929092168252602082015260400190565b60008060408385031215610eec57600080fd5b8251610ef781610c2e565b6020939093015192949293505050565b6001600160a01b039384168152919092166020820152604081019190915260600190565b600060208284031215610f3d57600080fd5b8151801515811461062157600080fd5b600060208284031215610f5f57600080fd5b505191905056fea2646970667358221220837278eae86afba0fd6e0021ef4a6de9c9edae9fda9c770f5ffec7d8b58f038564736f6c634300080a0033",
  "linkReferences": {},
  "deployedLinkReferences": {}
}