{
  "_format": "hh-sol-artifact-1",
  "contractName": "DAOInteraction",
  "abi": [
    {
      "inputs": [
        {
          "internalType": "address",
          "name": "vat_",
          "type": "address"
        },
        {
          "internalType": "address",
          "name": "spot_",
          "type": "address"
        },
        {
          "internalType": "address",
          "name": "abnbc_",
          "type": "address"
        },
        {
          "internalType": "address",
          "name": "usb_",
          "type": "address"
        },
        {
          "internalType": "address",
          "name": "abnbcJoin_",
          "type": "address"
        },
        {
          "internalType": "address",
          "name": "usbJoin_",
          "type": "address"
        }
      ],
      "stateMutability": "nonpayable",
      "type": "constructor"
    },
    {
      "anonymous": false,
      "inputs": [
        {
          "indexed": true,
          "internalType": "address",
          "name": "user",
          "type": "address"
        },
        {
          "indexed": false,
          "internalType": "uint256",
          "name": "amount",
          "type": "uint256"
        }
      ],
      "name": "Borrow",
      "type": "event"
    },
    {
      "anonymous": false,
      "inputs": [
        {
          "indexed": true,
          "internalType": "address",
          "name": "user",
          "type": "address"
        },
        {
          "indexed": false,
          "internalType": "uint256",
          "name": "amount",
          "type": "uint256"
        }
      ],
      "name": "Deposit",
      "type": "event"
    },
    {
      "anonymous": false,
      "inputs": [
        {
          "indexed": true,
          "internalType": "address",
          "name": "user",
          "type": "address"
        },
        {
          "indexed": false,
          "internalType": "uint256",
          "name": "amount",
          "type": "uint256"
        }
      ],
      "name": "Payback",
      "type": "event"
    },
    {
      "anonymous": false,
      "inputs": [
        {
          "indexed": true,
          "internalType": "address",
          "name": "user",
          "type": "address"
        },
        {
          "indexed": false,
          "internalType": "uint256",
          "name": "amount",
          "type": "uint256"
        }
      ],
      "name": "Withdraw",
      "type": "event"
    },
    {
      "inputs": [],
      "name": "abnbc",
      "outputs": [
        {
          "internalType": "contract IERC20",
          "name": "",
          "type": "address"
        }
      ],
      "stateMutability": "view",
      "type": "function"
    },
    {
      "inputs": [],
      "name": "abnbcJoin",
      "outputs": [
        {
          "internalType": "contract GemJoin",
          "name": "",
          "type": "address"
        }
      ],
      "stateMutability": "view",
      "type": "function"
    },
    {
      "inputs": [
        {
          "internalType": "uint256",
          "name": "dink",
          "type": "uint256"
        },
        {
          "internalType": "uint256",
          "name": "dart",
          "type": "uint256"
        }
      ],
      "name": "addCollateralAndBorrow",
      "outputs": [
        {
          "internalType": "uint256",
          "name": "",
          "type": "uint256"
        }
      ],
      "stateMutability": "nonpayable",
      "type": "function"
    },
    {
      "inputs": [
        {
          "internalType": "address",
          "name": "usr",
          "type": "address"
        }
      ],
      "name": "availableToBorrow",
      "outputs": [
        {
          "internalType": "int256",
          "name": "",
          "type": "int256"
        }
      ],
      "stateMutability": "view",
      "type": "function"
    },
    {
      "inputs": [
        {
          "internalType": "uint256",
          "name": "dart",
          "type": "uint256"
        }
      ],
      "name": "borrow",
      "outputs": [
        {
          "internalType": "uint256",
          "name": "",
          "type": "uint256"
        }
      ],
      "stateMutability": "nonpayable",
      "type": "function"
    },
    {
      "inputs": [
        {
          "internalType": "address",
          "name": "usr",
          "type": "address"
        }
      ],
      "name": "borrowed",
      "outputs": [
        {
          "internalType": "uint256",
          "name": "",
          "type": "uint256"
        }
      ],
      "stateMutability": "view",
      "type": "function"
    },
    {
      "inputs": [],
      "name": "collateralRate",
      "outputs": [
        {
          "internalType": "uint256",
          "name": "",
          "type": "uint256"
        }
      ],
      "stateMutability": "view",
      "type": "function"
    },
    {
      "inputs": [
        {
          "internalType": "uint256",
          "name": "dink",
          "type": "uint256"
        }
      ],
      "name": "deposit",
      "outputs": [
        {
          "internalType": "uint256",
          "name": "",
          "type": "uint256"
        }
      ],
      "stateMutability": "nonpayable",
      "type": "function"
    },
    {
      "inputs": [
        {
          "internalType": "address",
          "name": "usr",
          "type": "address"
        }
      ],
      "name": "free",
      "outputs": [
        {
          "internalType": "uint256",
          "name": "",
          "type": "uint256"
        }
      ],
      "stateMutability": "view",
      "type": "function"
    },
    {
      "inputs": [
        {
          "internalType": "address",
          "name": "usr",
          "type": "address"
        }
      ],
      "name": "locked",
      "outputs": [
        {
          "internalType": "uint256",
          "name": "",
          "type": "uint256"
        }
      ],
      "stateMutability": "view",
      "type": "function"
    },
    {
      "inputs": [
        {
          "internalType": "uint256",
          "name": "dart",
          "type": "uint256"
        }
      ],
      "name": "payback",
      "outputs": [
        {
          "internalType": "uint256",
          "name": "",
          "type": "uint256"
        }
      ],
      "stateMutability": "nonpayable",
      "type": "function"
    },
    {
      "inputs": [],
      "name": "spot",
      "outputs": [
        {
          "internalType": "contract Spotter",
          "name": "",
          "type": "address"
        }
      ],
      "stateMutability": "view",
      "type": "function"
    },
    {
      "inputs": [
        {
          "internalType": "string",
          "name": "source",
          "type": "string"
        }
      ],
      "name": "stringToBytes32",
      "outputs": [
        {
          "internalType": "bytes32",
          "name": "result",
          "type": "bytes32"
        }
      ],
      "stateMutability": "pure",
      "type": "function"
    },
    {
      "inputs": [],
      "name": "usb",
      "outputs": [
        {
          "internalType": "contract Usb",
          "name": "",
          "type": "address"
        }
      ],
      "stateMutability": "view",
      "type": "function"
    },
    {
      "inputs": [],
      "name": "usbJoin",
      "outputs": [
        {
          "internalType": "contract UsbJoin",
          "name": "",
          "type": "address"
        }
      ],
      "stateMutability": "view",
      "type": "function"
    },
    {
      "inputs": [],
      "name": "vat",
      "outputs": [
        {
          "internalType": "contract Vat",
          "name": "",
          "type": "address"
        }
      ],
      "stateMutability": "view",
      "type": "function"
    },
    {
      "inputs": [
        {
          "internalType": "uint256",
          "name": "dink",
          "type": "uint256"
        }
      ],
      "name": "withdraw",
      "outputs": [
        {
          "internalType": "uint256",
          "name": "",
          "type": "uint256"
        }
      ],
      "stateMutability": "nonpayable",
      "type": "function"
    }
  ],
  "bytecode": "0x60806040523480156200001157600080fd5b50604051620015263803806200152683398101604081905262000034916200025f565b600080546001600160a01b03199081166001600160a01b038981169190911790925560018054821688841617905560028054821687841617905560038054821686841617905560048054821685841617905560058054909116918316919091178155604080518082019091529081526461424e426360d81b6020820152620000bc9062000224565b6006556000546040516328ec8bf160e21b81526001600160a01b0383811660048301529091169063a3b22fc490602401600060405180830381600087803b1580156200010757600080fd5b505af11580156200011c573d6000803e3d6000fd5b505060025460405163095ea7b360e01b81526001600160a01b0386811660048301526000196024830152909116925063095ea7b391506044016020604051808303816000875af115801562000175573d6000803e3d6000fd5b505050506040513d601f19601f820116820180604052508101906200019b9190620002e0565b5060035460405163095ea7b360e01b81526001600160a01b03838116600483015260001960248301529091169063095ea7b3906044016020604051808303816000875af1158015620001f1573d6000803e3d6000fd5b505050506040513d601f19601f82011682018060405250810190620002179190620002e0565b505050505050506200030b565b80516000908290620002395750600092915050565b50506020015190565b80516001600160a01b03811681146200025a57600080fd5b919050565b60008060008060008060c087890312156200027957600080fd5b620002848762000242565b9550620002946020880162000242565b9450620002a46040880162000242565b9350620002b46060880162000242565b9250620002c46080880162000242565b9150620002d460a0880162000242565b90509295509295509295565b600060208284031215620002f357600080fd5b815180151581146200030457600080fd5b9392505050565b61120b806200031b6000396000f3fe608060405234801561001057600080fd5b50600436106100eb5760003560e01c80638dc00656116100925780638dc00656146101a8578063a846c2fd146101bb578063b6b55f25146101ce578063c5ebeaec146101e1578063c9b5bb17146101f4578063cbf9fe5f14610207578063cfb519281461021a578063db5501ea1461022d578063f2b301a91461024057600080fd5b80630941cb3d146100f05780632c38199e146101165780632e1a7d4d1461012957806336569e771461013c57806358a6be1c146101675780636f265b931461016f578063888de544146101825780638ae8b30914610195575b600080fd5b6101036100fe366004610e93565b610253565b6040519081526020015b60405180910390f35b610103610124366004610e93565b6102d0565b610103610137366004610eb0565b610413565b60005461014f906001600160a01b031681565b6040516001600160a01b03909116815260200161010d565b6101036105c5565b60015461014f906001600160a01b031681565b610103610190366004610ec9565b610646565b60055461014f906001600160a01b031681565b60025461014f906001600160a01b031681565b6101036101c9366004610eb0565b6107ce565b6101036101dc366004610eb0565b610961565b6101036101ef366004610eb0565b610a6f565b610103610202366004610e93565b610d66565b610103610215366004610e93565b610de1565b610103610228366004610f01565b610e5e565b60035461014f906001600160a01b031681565b60045461014f906001600160a01b031681565b600080546006546040516309092f9760e21b815283926001600160a01b031691632424be5c9161028891908790600401610fb2565b6040805180830381865afa1580156102a4573d6000803e3d6000fd5b505050506040513d601f19601f820116820180604052508101906102c89190610fc9565b949350505050565b600080546006546040516309092f9760e21b8152839283926001600160a01b0390911691632424be5c91610308918890600401610fb2565b6040805180830381865afa158015610324573d6000803e3d6000fd5b505050506040513d601f19601f820116820180604052508101906103489190610fc9565b60008054600654604051636cb1c69b60e11b815260048101919091529395509193509182916001600160a01b03169063d9638d369060240160a060405180830381865afa15801561039d573d6000803e3d6000fd5b505050506040513d601f19601f820116820180604052508101906103c19190610fed565b50509250925050600081856103d69190611043565b905060006103e48585611043565b90506b033b2e3c9fd0803ce80000006103fd8284611062565b61040791906110a1565b98975050505050505050565b60008061041f33610d66565b9050828110156105265760006104358285611062565b6000546006549192506001600160a01b03169063760887039033808061045a876110dd565b60006040518763ffffffff1660e01b815260040161047d969594939291906110fa565b600060405180830381600087803b15801561049757600080fd5b505af11580156104ab573d6000803e3d6000fd5b5050600054600654604051633088df1760e11b81526004810191909152336024820152306044820152606481018590526001600160a01b039091169250636111be2e9150608401600060405180830381600087803b15801561050c57600080fd5b505af1158015610520573d6000803e3d6000fd5b50505050505b6004805460405163ef693bed60e01b81526001600160a01b039091169163ef693bed9161055791339188910161112f565b600060405180830381600087803b15801561057157600080fd5b505af1158015610585573d6000803e3d6000fd5b50506040518581523392507f884edad9ce6fa2440d8a54cc123490eb96d2768479d49ff9c7366125a9424364915060200160405180910390a25090919050565b600154600654604051636cb1c69b60e11b815260009283926001600160a01b039091169163d9638d36916105ff9160040190815260200190565b6040805180830381865afa15801561061b573d6000803e3d6000fd5b505050506040513d601f19601f8201168201806040525081019061063f9190611148565b9392505050565b60008054600654604051637608870360e01b81526001600160a01b0390921691637608870391610682913390819081908a908a906004016110fa565b600060405180830381600087803b15801561069c57600080fd5b505af11580156106b0573d6000803e3d6000fd5b50506000546001600160a01b0316915063bb35783b905033306106df866b033b2e3c9fd0803ce8000000611043565b6040518463ffffffff1660e01b81526004016106fd93929190611176565b600060405180830381600087803b15801561071757600080fd5b505af115801561072b573d6000803e3d6000fd5b505060055460405163ef693bed60e01b81526001600160a01b03909116925063ef693bed9150610761903390869060040161112f565b600060405180830381600087803b15801561077b57600080fd5b505af115801561078f573d6000803e3d6000fd5b50506040518481523392507fcbc04eca7e9da35cb1393a6135a199ca52e450d5e9251cbd99f7847d33a36750915060200160405180910390a250919050565b6003546040516323b872dd60e01b81526000916001600160a01b0316906323b872dd9061080390339030908790600401611176565b6020604051808303816000875af1158015610822573d6000803e3d6000fd5b505050506040513d601f19601f82011682018060405250810190610846919061119a565b50600554604051633b4da69f60e01b81526001600160a01b0390911690633b4da69f90610879903390869060040161112f565b600060405180830381600087803b15801561089357600080fd5b505af11580156108a7573d6000803e3d6000fd5b5050600080546006546001600160a01b03909116935063760887039250903390819081906108d4896110dd565b6040518763ffffffff1660e01b81526004016108f5969594939291906110fa565b600060405180830381600087803b15801561090f57600080fd5b505af1158015610923573d6000803e3d6000fd5b50506040518481523392507f8c9cdf934f136ab5b80fe11dfd56363fa7544ecb56d4c440c0d8a14d04bfff4a91506020015b60405180910390a25090565b6002546040516323b872dd60e01b81526000916001600160a01b0316906323b872dd9061099690339030908790600401611176565b6020604051808303816000875af11580156109b5573d6000803e3d6000fd5b505050506040513d601f19601f820116820180604052508101906109d9919061119a565b5060048054604051633b4da69f60e01b81526001600160a01b0390911691633b4da69f91610a0b91339187910161112f565b600060405180830381600087803b158015610a2557600080fd5b505af1158015610a39573d6000803e3d6000fd5b50506040518481523392507fe1fffcc4923d04b559f4d29a8bfc6cda04eb5b0d3c460751c2402c5c5cc9109c9150602001610955565b600080610a7b336102d0565b90508280821215610bde57610a908183611062565b60005460065460405163214414d560e01b81526001600160a01b039092169163214414d591610ac3913390600401610fb2565b602060405180830381865afa158015610ae0573d6000803e3d6000fd5b505050506040513d601f19601f82011682018060405250810190610b0491906111bc565b1215610b605760405162461bcd60e51b815260206004820152602160248201527f496e746572616374696f6e2f6e6f742d656e6f7567682d636f6c6c61746572616044820152601b60fa1b606482015260840160405180910390fd5b6000546006546001600160a01b0390911690637608870390338080610b858789611062565b876040518763ffffffff1660e01b8152600401610ba7969594939291906110fa565b600060405180830381600087803b158015610bc157600080fd5b505af1158015610bd5573d6000803e3d6000fd5b50505050610c4c565b60008054600654604051637608870360e01b81526001600160a01b0390921692637608870392610c19929133918291829189906004016110fa565b600060405180830381600087803b158015610c3357600080fd5b505af1158015610c47573d6000803e3d6000fd5b505050505b6000546001600160a01b031663bb35783b3330610c75886b033b2e3c9fd0803ce8000000611043565b6040518463ffffffff1660e01b8152600401610c9393929190611176565b600060405180830381600087803b158015610cad57600080fd5b505af1158015610cc1573d6000803e3d6000fd5b505060055460405163ef693bed60e01b81526001600160a01b03909116925063ef693bed9150610cf7903390889060040161112f565b600060405180830381600087803b158015610d1157600080fd5b505af1158015610d25573d6000803e3d6000fd5b50506040518681523392507fcbc04eca7e9da35cb1393a6135a199ca52e450d5e9251cbd99f7847d33a36750915060200160405180910390a2509192915050565b6000805460065460405163214414d560e01b81526001600160a01b039092169163214414d591610d9a918690600401610fb2565b602060405180830381865afa158015610db7573d6000803e3d6000fd5b505050506040513d601f19601f82011682018060405250810190610ddb91906111bc565b92915050565b600080546006546040516309092f9760e21b815283926001600160a01b031691632424be5c91610e1691908790600401610fb2565b6040805180830381865afa158015610e32573d6000803e3d6000fd5b505050506040513d601f19601f82011682018060405250810190610e569190610fc9565b509392505050565b80516000908290610e725750600092915050565b50506020015190565b6001600160a01b0381168114610e9057600080fd5b50565b600060208284031215610ea557600080fd5b813561063f81610e7b565b600060208284031215610ec257600080fd5b5035919050565b60008060408385031215610edc57600080fd5b50508035926020909101359150565b634e487b7160e01b600052604160045260246000fd5b600060208284031215610f1357600080fd5b813567ffffffffffffffff80821115610f2b57600080fd5b818401915084601f830112610f3f57600080fd5b813581811115610f5157610f51610eeb565b604051601f8201601f19908116603f01168101908382118183101715610f7957610f79610eeb565b81604052828152876020848701011115610f9257600080fd5b826020860160208301376000928101602001929092525095945050505050565b9182526001600160a01b0316602082015260400190565b60008060408385031215610fdc57600080fd5b505080516020909101519092909150565b600080600080600060a0868803121561100557600080fd5b5050835160208501516040860151606087015160809097015192989197509594509092509050565b634e487b7160e01b600052601160045260246000fd5b600081600019048311821515161561105d5761105d61102d565b500290565b60008083128015600160ff1b8501841216156110805761108061102d565b6001600160ff1b038401831381161561109b5761109b61102d565b50500390565b6000826110be57634e487b7160e01b600052601260045260246000fd5b600160ff1b8214600019841416156110d8576110d861102d565b500590565b6000600160ff1b8214156110f3576110f361102d565b5060000390565b9586526001600160a01b039485166020870152928416604086015292166060840152608083019190915260a082015260c00190565b6001600160a01b03929092168252602082015260400190565b6000806040838503121561115b57600080fd5b825161116681610e7b565b6020939093015192949293505050565b6001600160a01b039384168152919092166020820152604081019190915260600190565b6000602082840312156111ac57600080fd5b8151801515811461063f57600080fd5b6000602082840312156111ce57600080fd5b505191905056fea26469706673582212207856374b0dbbcce935c2e799aabee1580faa9deb68048f3bfa49c6eec806c42f64736f6c634300080a0033",
  "linkReferences": {},
  "deployedLinkReferences": {}
}