{
  "_format": "hh-sol-artifact-1",
  "contractName": "HelioRewards",
  "sourceName": "contracts/HelioRewards.sol",
  "abi": [
    {
      "inputs": [],
      "stateMutability": "nonpayable",
      "type": "constructor"
    },
    {
      "anonymous": false,
      "inputs": [
        {
          "indexed": true,
          "internalType": "address",
          "name": "user",
          "type": "address"
        },
        {
          "indexed": false,
          "internalType": "uint256",
          "name": "amount",
          "type": "uint256"
        }
      ],
      "name": "Claimed",
      "type": "event"
    },
    {
      "inputs": [
        {
          "internalType": "address",
          "name": "usr",
          "type": "address"
        },
        {
          "internalType": "uint256",
          "name": "amount",
          "type": "uint256"
        }
      ],
      "name": "addRewards",
      "outputs": [],
      "stateMutability": "nonpayable",
      "type": "function"
    },
    {
      "inputs": [
        {
          "internalType": "address",
          "name": "usr",
          "type": "address"
        },
        {
          "internalType": "uint256",
          "name": "amount",
          "type": "uint256"
        }
      ],
      "name": "claim",
      "outputs": [],
      "stateMutability": "nonpayable",
      "type": "function"
    },
    {
      "inputs": [
        {
          "internalType": "address",
          "name": "usr",
          "type": "address"
        }
      ],
      "name": "deny",
      "outputs": [],
      "stateMutability": "nonpayable",
      "type": "function"
    },
    {
      "inputs": [
        {
          "internalType": "bytes32",
          "name": "ilk",
          "type": "bytes32"
        }
      ],
      "name": "drip",
      "outputs": [],
      "stateMutability": "nonpayable",
      "type": "function"
    },
    {
      "inputs": [],
      "name": "helioPrice",
      "outputs": [
        {
          "internalType": "uint256",
          "name": "",
          "type": "uint256"
        }
      ],
      "stateMutability": "view",
      "type": "function"
    },
    {
      "inputs": [],
      "name": "helioToken",
      "outputs": [
        {
          "internalType": "address",
          "name": "",
          "type": "address"
        }
      ],
      "stateMutability": "view",
      "type": "function"
    },
    {
      "inputs": [
        {
          "internalType": "bytes32",
          "name": "ilk",
          "type": "bytes32"
        }
      ],
      "name": "initPool",
      "outputs": [],
      "stateMutability": "nonpayable",
      "type": "function"
    },
    {
      "inputs": [],
      "name": "live",
      "outputs": [
        {
          "internalType": "uint256",
          "name": "",
          "type": "uint256"
        }
      ],
      "stateMutability": "view",
      "type": "function"
    },
    {
      "inputs": [
        {
          "internalType": "address",
          "name": "usr",
          "type": "address"
        }
      ],
      "name": "pendingRewards",
      "outputs": [
        {
          "internalType": "uint256",
          "name": "",
          "type": "uint256"
        }
      ],
      "stateMutability": "view",
      "type": "function"
    },
    {
      "inputs": [
        {
          "internalType": "address",
          "name": "usr",
          "type": "address"
        }
      ],
      "name": "rely",
      "outputs": [],
      "stateMutability": "nonpayable",
      "type": "function"
    },
    {
      "inputs": [
        {
          "internalType": "address",
          "name": "helioToken_",
          "type": "address"
        }
      ],
      "name": "setHelioToken",
      "outputs": [],
      "stateMutability": "nonpayable",
      "type": "function"
    },
    {
      "inputs": [],
      "name": "stop",
      "outputs": [],
      "stateMutability": "nonpayable",
      "type": "function"
    },
    {
      "inputs": [],
      "name": "vat",
      "outputs": [
        {
          "internalType": "contract VatLike",
          "name": "",
          "type": "address"
        }
      ],
      "stateMutability": "view",
      "type": "function"
    },
    {
      "inputs": [
        {
          "internalType": "address",
          "name": "",
          "type": "address"
        }
      ],
      "name": "wards",
      "outputs": [
        {
          "internalType": "uint256",
          "name": "",
          "type": "uint256"
        }
      ],
      "stateMutability": "view",
      "type": "function"
    },
    {
      "inputs": [
        {
          "internalType": "address",
          "name": "usr",
          "type": "address"
        },
        {
          "internalType": "uint256",
          "name": "dart",
          "type": "uint256"
        }
      ],
      "name": "withDraw",
      "outputs": [],
      "stateMutability": "nonpayable",
      "type": "function"
    }
  ],
  "bytecode": "0x608060405234801561001057600080fd5b50600180805533600090815260208190526040902055610efb806100356000396000f3fe608060405234801561001057600080fd5b50600436106100d55760003560e01c80639039112611610087578063903911261461018157806395217f6c1461018f578063957aa58c146101a25780639c52a7f1146101ab578063a9fc507b146101be578063aad3ec96146101d1578063be9dc69a146101e4578063bf353dbb146101f757600080fd5b806307da68f5146100da57806318248eea146100e4578063191e2e83146100f757806331d7a2621461010a57806336569e771461013057806344e2a5a81461015b57806365fae35e1461016e575b600080fd5b6100e2610217565b005b6100e26100f2366004610d23565b610256565b6100e2610105366004610d53565b6102b7565b61011d610118366004610d7d565b6103e6565b6040519081526020015b60405180910390f35b600554610143906001600160a01b031681565b6040516001600160a01b039091168152602001610127565b6100e2610169366004610d23565b610588565b6100e261017c366004610d7d565b610719565b67016345785d8a000061011d565b6100e261019d366004610d7d565b610787565b61011d60015481565b6100e26101b9366004610d7d565b6107d8565b6100e26101cc366004610d53565b610843565b6100e26101df366004610d53565b6108d4565b600654610143906001600160a01b031681565b61011d610205366004610d7d565b60006020819052908152604090205481565b3360009081526020819052604090205460011461024f5760405162461bcd60e51b815260040161024690610d98565b60405180910390fd5b6000600155565b336000908152602081905260409020546001146102855760405162461bcd60e51b815260040161024690610d98565b604080518082018252600080825242602080840191825285835260049052929020905181559051600190910155600755565b6007546000908152600460205260409020600101546102e85760405162461bcd60e51b815260040161024690610dc8565b336000908152602081905260409020546001146103175760405162461bcd60e51b815260040161024690610d98565b600554600754604051636cb1c69b60e11b815260048101919091526000916001600160a01b03169063d9638d36906024016040805180830381865afa158015610364573d6000803e3d6000fd5b505050506040513d601f19601f820116820180604052508101906103889190610df1565b509050600061039a8360085484610ae9565b905080600860008282546103ae9190610e2b565b90915550506001600160a01b038416600090815260026020526040812080548392906103db908490610e42565b909155505050505050565b6007546000908152600460205260408120600101546104175760405162461bcd60e51b815260040161024690610dc8565b600554600754604051636cb1c69b60e11b815260009283926001600160a01b039091169163d9638d36916104519160040190815260200190565b6040805180830381865afa15801561046d573d6000803e3d6000fd5b505050506040513d601f19601f820116820180604052508101906104919190610df1565b6005546007546040516309092f9760e21b815260048101919091526001600160a01b0388811660248301529395509193506000921690632424be5c906044016040805180830381865afa1580156104ec573d6000803e3d6000fd5b505050506040513d601f19601f820116820180604052508101906105109190610df1565b915050600061052c82846b033b2e3c9fd0803ce8000000610ae9565b9050600061053d8260085487610ae9565b6001600160a01b03881660009081526003602090815260408083205460029092529091205491925090610571908390610e42565b61057b9190610e2b565b955050505050505b919050565b6007546000908152600460205260409020600101546105b95760405162461bcd60e51b815260040161024690610dc8565b60008181526004602052604090206001015442101561060f5760405162461bcd60e51b81526020600482015260126024820152715265776172642f696e76616c69642d6e6f7760701b6044820152606401610246565b6000818152600460205260408120805460019091015461064691906106349042610e2b565b6b033b2e3c9fd0803ce8000000610c65565b6000838152600460208190526040808320426001909101556005546007549151636cb1c69b60e11b81529283019190915292935090916001600160a01b03169063d9638d36906024016040805180830381865afa1580156106ab573d6000803e3d6000fd5b505050506040513d601f19601f820116820180604052508101906106cf9190610df1565b50905060006106eb83836b033b2e3c9fd0803ce8000000610ae9565b90506107088167016345785d8a0000670de0b6b3a7640000610ae9565b600860008282546103db9190610e42565b336000908152602081905260409020546001146107485760405162461bcd60e51b815260040161024690610d98565b60015460011461076a5760405162461bcd60e51b815260040161024690610e5a565b6001600160a01b0316600090815260208190526040902060019055565b336000908152602081905260409020546001146107b65760405162461bcd60e51b815260040161024690610d98565b600680546001600160a01b0319166001600160a01b0392909216919091179055565b336000908152602081905260409020546001146108075760405162461bcd60e51b815260040161024690610d98565b6001546001146108295760405162461bcd60e51b815260040161024690610e5a565b6001600160a01b0316600090815260208190526040812055565b6007546000908152600460205260409020600101546108745760405162461bcd60e51b815260040161024690610dc8565b336000908152602081905260409020546001146108a35760405162461bcd60e51b815260040161024690610d98565b6001600160a01b038216600090815260026020526040812080548392906108cb908490610e42565b90915550505050565b6007546000908152600460205260409020600101546109055760405162461bcd60e51b815260040161024690610dc8565b336000908152602081905260409020546001146109345760405162461bcd60e51b815260040161024690610d98565b61093d826103e6565b81111561098c5760405162461bcd60e51b815260206004820152601a60248201527f526577617264732f6e6f742d656e6f7567682d726577617264730000000000006044820152606401610246565b6001600160a01b03821660009081526002602052604090205481116109de576001600160a01b038216600090815260026020526040812080548392906109d3908490610e2b565b90915550610a2a9050565b6001600160a01b038216600090815260026020526040812054610a019083610e2b565b6001600160a01b0384166000908152600360209081526040808320939093556002905290812055505b6006546040516340c10f1960e01b81526001600160a01b03848116600483015260248201849052909116906340c10f19906044016020604051808303816000875af1158015610a7d573d6000803e3d6000fd5b505050506040513d601f19601f82011682018060405250810190610aa19190610e84565b50816001600160a01b03167fd8138f8a3f377c5259ca548e70e4c2de94f129f5a11036a15b69513cba2b426a82604051610add91815260200190565b60405180910390a25050565b600080806000198587098587029250828110838203039150508060001415610b235760008411610b1857600080fd5b508290049050610c5e565b808411610b2f57600080fd5b6000848688098084039381119092039190506000610b4f86196001610e42565b8616958690049593849004936000819003046001019050610b708184610ea6565b909317926000610b81876003610ea6565b6002189050610b908188610ea6565b610b9b906002610e2b565b610ba59082610ea6565b9050610bb18188610ea6565b610bbc906002610e2b565b610bc69082610ea6565b9050610bd28188610ea6565b610bdd906002610e2b565b610be79082610ea6565b9050610bf38188610ea6565b610bfe906002610e2b565b610c089082610ea6565b9050610c148188610ea6565b610c1f906002610e2b565b610c299082610ea6565b9050610c358188610ea6565b610c40906002610e2b565b610c4a9082610ea6565b9050610c568186610ea6565b955050505050505b9392505050565b6000838015610d0557600184168015610c8057859250610c84565b8392505b50600283046002850494505b8415610cff578586028687820414610ca757600080fd5b81810181811015610cb757600080fd5b8590049650506001851615610cf4578583028387820414158715151615610cdd57600080fd5b81810181811015610ced57600080fd5b8590049350505b600285049450610c90565b50610d1b565b838015610d155760009250610d19565b8392505b505b509392505050565b600060208284031215610d3557600080fd5b5035919050565b80356001600160a01b038116811461058357600080fd5b60008060408385031215610d6657600080fd5b610d6f83610d3c565b946020939093013593505050565b600060208284031215610d8f57600080fd5b610c5e82610d3c565b60208082526016908201527514995dd85c991ccbdb9bdd0b585d5d1a1bdc9a5e995960521b604082015260600190565b6020808252600f908201526e14995dd85c990bdb9bdd0b5a5b9a5d608a1b604082015260600190565b60008060408385031215610e0457600080fd5b505080516020909101519092909150565b634e487b7160e01b600052601160045260246000fd5b600082821015610e3d57610e3d610e15565b500390565b60008219821115610e5557610e55610e15565b500190565b60208082526010908201526f526577617264732f6e6f742d6c69766560801b604082015260600190565b600060208284031215610e9657600080fd5b81518015158114610c5e57600080fd5b6000816000190483118215151615610ec057610ec0610e15565b50029056fea264697066735822122025fcad74b5e2b09e5808b51fb0259c586a28fc447518c1f05ca560b1ffcb2ce764736f6c634300080a0033",
  "linkReferences": {},
  "deployedLinkReferences": {}
}